:020000040800F2
:1000000018CA0020AD010008BF1F0008031D00082A
:10001000BD1F0008F90200080128000800000000C8
:100020000000000000000000000000006D2100083A
:100030007D06000800000000E11F00086F21000895
:10004000C7010008C7010008C7010008C701000870
:10005000C7010008C701000835070008C7010008EC
:10006000C7010008C7010008C7010008C701000850
:10007000C7010008C7010008C7010008C701000840
:10008000A9050008B5050008C70100080000000028
:10009000000000000000000000000000C701000890
:1000A000C7010008C7010008C7010008C701000810
:1000B0006D220008C7010008C7010008C701000839
:1000C000C7010008C7010008C7010008C7010008F0
:1000D000C7010008DD270008E9270008000000002C
:1000E000C7010008C7010008C701000800000000A0
:1000F000000000000000000000000000C701000830
:1001000000000000C7010008C7010008C70100087F
:1001100000000000000000000000000000000000DF
:10012000C7010008C1050008CD050008C701000887
:10013000C7010008000000000000000000000000EF
:10014000000000000000000000000000C7010008DF
:10015000C7010008C7010008C7010008F52700080B
:10016000C7010008C70100080000000000000000EF
:10017000000000000000000000000000000000007F
:1001800000000000C701000800000000000000009F
:10019000C7010008C7010008DFF80CD000F09AF88A
:1001A00000480047CD2A000818CA002006488047AA
:1001B00006480047FEE7FEE7FEE7FEE7FEE7FEE74C
:1001C000FEE7FEE7FEE7FEE71922000899010008B6
:1001D0002DE9F05F0546002092469B46884606467C
:1001E000814640241BE0284641464746224600F00F
:1001F00061F853465A46C01A914110D31146184629
:10020000224600F048F82D1A67EB01084F462246B7
:100210000120002100F03FF817EB00094E41201E9D
:10022000A4F10104DFDC484631462A464346BDE8D6
:10023000F09F421E12F8013F002BFBD111F8013B49
:1002400002F8013B002BF9D17047421C10F8011B4A
:100250000029FBD1801A7047034611F8012B00F8E2
:10026000012B002AF9D11846704730B50B460146DC
:1002700000202022012409E021FA02F59D4205D345
:1002800003FA02F5491B04FA02F52844151EA2F1EF
:100290000102F1DC30BD202A04DB203A00FA02F131
:1002A000002070479140C2F1200320FA03F3194364
:1002B00090407047202A04DB203A21FA02F0002106
:1002C000704721FA02F3D040C2F120029140084366
:1002D00019467047064C074D06E0E06840F0010300
:1002E00094E8070098471034AC42F6D3FFF758FF64
:1002F000482E0008682E0008FEE70000F0B595B013
:1003000015460E466A46402102F07CFA04460AAAC7
:100310002021304602F076FA00203127631E69461C
:100320000AAA4FF0300C202619E000BF01EB800E26
:100330009EED000A02EB800EDEED000AB4EEE00A4C
:10034000F1EE10FA02D205F810C001E005F81070C5
:10035000984203DA05EB400E8EF80160401CA04283
:10036000E4DB15B0F0BD2DE9F041074616460D4619
:100370000846FFF76AFF044610E02846FFF765FFCE
:10038000301A20443844291910F8010C11F8011CC6
:10039000884202D00020BDE8F081641E002CECDC15
:1003A0000120F8E72DE9F04700269246894680466D
:1003B0003546374634461BE018F8041019F8050096
:1003C000814201D16D1C00E000254846FFF73DFF4A
:1003D000A84201D1012600E04EB108EB04014878A3
:1003E0000D2801D1C97849B10AF807007F1C641CA7
:1003F0004046FFF72AFFA042DED816B10120BDE833
:10040000F0870020FBE72DE9F04100240E46074667
:1004100025460FE0785D315D884201D1641C00E023
:1004200000243046FFF711FFA04202D10120BDE8B1
:10043000F0816D1C3846FFF708FFA842EAD800207B
:10044000F5E7000031B51D4842F228310068B0FBE5
:10045000F1F000994843009019A12448FFF7FCFEF1
:100460002248FFF7F2FE82B22049214801F029FC20
:10047000204C0CE0228920A12148FFF774FF50B9DD
:1004800020A11F48FFF7BFFF08B1002038BD00982A
:10049000411E0091EED20098401C0090F6D04FF41F
:1004A00096720021164802F077FC0020208101227C
:1004B0001103164800F097FC012038BD1C000020F5
:1004C00041542B43495053544152543D22544350BC
:1004D000222C22313431333236342E736F6D656500
:1004E0002E636F6D222C38300D0A00003C4F002027
:1004F000DC000020000000200D0A4F4B0D0A000018
:100500002C2800204552524F52000000000C02409F
:1005100070B50446017821488615312932D0012270
:10052000314600F060FCA0781D4D31282CD001220E
:100530003146284600F057FC20794FF48066312878
:1005400024D001223146284600F04DFCA0794FF41A
:10055000805131281CD00122284600F044FC207A2A
:100560004FF48041312815D00122284600F03BFC91
:10057000A17A0C4831290FD001223146BDE87040E4
:1005800000F031BC0022CBE70022D1E70022D9E7FE
:100590000022E1E70022E8E70022EEE7000C02403B
:1005A0000010024000040240014800F0AFB9000012
:1005B000F8C40020014800F0A9B9000058C5002087
:1005C000014800F0A3B90000B8C50020014800F0C0
:1005D0009DB9000098C4002001681823CAB2103ADF
:1005E000B2FBF3F2054B6FF30901032A9B5CC36571
:1005F00000D9091D8165084670470000A62D000836
:1006000010B5014600208B698A6A4FF0C07453B15F
:10061000B3F5005F15D072B1012A0CD0022A0AD0BE
:10062000032A09D104E01AB1012A06D0022A03D113
:10063000C96AC90100D5012010BDC96AA142FAD01A
:1006400010BD002AF7D0012AF2D0022AF3D0032AE3
:10065000F3D010BD30B50468256825F480252560E9
:10066000046863608368402B036803D09960006866
:10067000C26030BD9A600068C16030BD7047000044
:1006800031B500224FF480511C4800F0ACFB1C48EF
:1006900042F228310068B0FBF1F000994843009025
:1006A00018A11C48FFF7D8FD1A48FFF7CEFD82B20B
:1006B0001849194801F005FB184C0CE0228918A1D3
:1006C0001948FFF750FE50B918A11748FFF79BFED5
:1006D00008B1002038BD0098411E0091EED200986C
:1006E000401C0090F6D04FF4967200210E4802F0A4
:1006F00053FB00202081012038BD0000000C024087
:100700001C00002041542B434950534855540D0AB6
:10071000000000003C4F0020DC0000200000002012
:100720000D0A4F4B0D0A00002C2800204552524F55
:1007300052000000012000F081BA10B54FF4FA74A5
:10074000022804D0032802D02046FFF799FF204654
:10075000BDE81040FFF776BE2DE9F74107463A485D
:10076000884642F228310068B3B0B0FBF1F0359909
:1007700048430546359035A16846FFF76DFD43A116
:100780004648FFF769FD4548FFF75FFD82B24349E0
:10079000434801F096FA434C0AE0228942A14348BB
:1007A000FFF7E1FD40B942A14048FFF72CFE80BBB6
:1007B0003598411E3591F0D23598401C359029D09E
:1007C0004FF49676324600213848359502F0E4FA27
:1007D0000025258138A13148FFF73EFD39462F48D5
:1007E000FFF727FD69462D48FFF723FD2B48FFF74C
:1007F0002CFD82B229492A4801F063FA0DE030A1AC
:100800002A48FFF700FE60B929A12848FFF7FBFD41
:1008100018B1002036B0BDE8F0813598411E359101
:10082000EDD23598401C3590F4D0052000F0E4F965
:100830001E494046FFF710FD324600211B4802F0DA
:10084000ABFA25810120E5E71C0000202048545424
:10085000502F312E310D0A486F73743A20313431E4
:10086000333236342E736F6D65652E636F6D0D0AEE
:10087000436F6E6E656374696F6E3A204B65657089
:100880002D416C6976650D0A0D0A1A0041542B43FF
:10089000495053454E440D0A000000003C4F0020D3
:1008A000DC000020000000203E2000002C2800205A
:1008B0004552524F520000004745542000000000AE
:1008C000436F6E74656E742D4C656E6774683A2064
:1008D00000000000002201E08B54521C835C0D2BB1
:1008E000FAD100208854704790F83510022903D0BF
:1008F0008021416501207047052180F8351000688E
:10090000016821F001010160002070472DE9F843E2
:1009100004464FF00009CDF8009063484FF416519B
:10092000A56D0068B0FBF1F72E6894F85C10082004
:1009300000FA01F131420FD021680A6852070BD545
:100940000A6822F004020A6094F85C108840A860EB
:10095000606D40F00100606594F85C104FF0010894
:1009600008FA01F0304208D021684969090604D527
:10097000A860606D40F00200606594F85C1004208F
:100980008840304208D021680968890704D5A860EA
:10099000606D40F00400606594F85C1010208840A1
:1009A000304218D021680968090714D5A86020686A
:1009B0000168490304D50068000308D5A16C07E06D
:1009C0000168C90503D4016821F008010160216CA8
:1009D00009B12046884794F85C10202088403042B6
:1009E00031D021680968C9062DD5A86094F8350072
:1009F00005282068016806D0490347D50068000330
:100A00001DD4616C1CE021F0160101602068416971
:100A100021F080014161206C08B9A06C20B12068F0
:100A2000016821F00801016094F85C103F208840C3
:100A3000A86084F8349084F83580216D1FE0E16B64
:100A400009B120468847606D00282BD0606DC00733
:100A500014D0052084F835002068016821F00101D8
:100A600001600098401C0090B84203D820680068DC
:100A7000C007F6D184F8349084F83580E16C002901
:100A800010D001B02046BDE8F04308470168C90511
:100A9000D5D4016821F01001016084F8349084F805
:100AA0003580CCE7BDE8F8831C0000202DE9F0413B
:100AB000044600F09DF906465CB1002584F83450E8
:100AC000022084F835002068016821F001010160EE
:100AD0000DE00120BDE8F08100F08AF9801B0528B7
:100AE00005D920206065032084F83500F2E72068EE
:100AF0000068C007F0D12268116820480140D4E99D
:100B000001031843D4E90336334318436369184398
:100B1000A3691843E3691843236A18430843616AC9
:100B2000042903D1D4E90B1319430843106020684A
:100B30004069666A20F0070130460E430127042809
:100B40000CD1A06A0643E06A40B12046FFF758FD89
:100B500020B14020606584F83570BAE720684661AE
:100B60002046FFF739FD94F85C203F2191408160D9
:100B7000656584F835700020ACE700003F8010F018
:100B80002DE9F0410446866D90F8340000250128D7
:100B90000DD0012084F8340094F835700020012F26
:100BA00007D084F8340002252846BDE8F0810220F1
:100BB000FBE7022784F8357060652046FFF74AFDA1
:100BC00094F85C103F208840B0602068016841F0D4
:100BD000160101602068416941F080014161206C8B
:100BE00020B12068016841F00801016020680168B7
:100BF00041F001010160D7E770B5044600F0F8F854
:100C00000546601C02D004480078044400F0F0F867
:100C1000401BA042FAD370BD10000020054910B55A
:100C200001200870044C0121204600F0D7F800286C
:100C3000F9D110BD0000002000000240044910B5A9
:100C40000A68024202D00860FFF7E8FF10BD00000A
:100C5000143C01402DE9F84FDFF860B100224FF05D
:100C600001084FF0030A4FF00F090BF1040E00BF0B
:100C70000B6808FA02F42340A3426ED14D68022D9E
:100C800001D0122D0ED1D50800EB850CDCF82050D8
:100C90005607F70E09FA07F6B5430E69BE402E4314
:100CA000CCF82060066855000F790AFA05FC07F0B9
:100CB000030726EA0C06AF40374307604E68012E53
:100CC00005D0022E03D0112E01D0122E0ED186682F
:100CD000CF6826EA0C06AF40374387604668A643D4
:100CE0000C79C4F30014944034434460C6688C68A3
:100CF00026EA0C06AC403443C4604C68E40056D588
:100D00002F4C256845F480452560246822F00305B2
:100D100004F4804400942B4C2E19D6F8084895070B
:100D20002F0F09FA07F5AC43274DA84201D1002542
:100D300015E0264DA84201D1012510E0244DA8421E
:100D400001D102250BE0234DA84201D1032506E085
:100D5000214DA84202D1042501E028E00725BD402D
:100D60002543C6F80858DBF800405D464E689C43B2
:100D7000F60300D51C432C60DEF8004075464E6833
:100D80009C43B60300D51C432C600C4D08352C68E1
:100D90004E689C43F60200D51C432C60074D0C3571
:100DA0002C684E689C43B60200D51C432C60521C34
:100DB000102AFFF45DAFBDE8F88F0000003C014051
:100DC000443802400030014000000240000402406C
:100DD00000080240000C0240001002400069084078
:100DE00000D0012070470AB1816170470904FBE718
:100DF00001488068704700001000002002488168A8
:100E00000278114481607047100000200B4810B533
:100E1000016841F400710160016841F48061016082
:100E2000016841F480710160032000F097F8002010
:100E300000F006F800F024F8002010BD003C02404D
:100E400070B50D4D04464FF47A712878B1FBF0F07F
:100E50000A490968B1FBF0F000F01BFB48B9102CFF
:100E600007D200222146501E00F058F800206C6086
:100E700070BD012070BD0000100000201C0000208B
:100E80001F4808B5016841F480410160006800F422
:100E9000804000901A48001F016841F080510160B5
:100EA000006800F080500090032000F057F8002206
:100EB00011466FF00B0000F031F8002211466FF080
:100EC0000A0000F02BF8002211466FF0090000F034
:100ED00025F800221146501F00F020F8002211468C
:100EE000101F00F01BF800221146901E00F016F8AB
:100EF0000022BDE808401146501E00F00FB8000067
:100F00004438024000F01F02012191404009800056
:100F100000F1E020C0F8001170470000F0B40E4B63
:100F20001B680C46C3F30223C3F10705042D00D947
:100F30000425191D072901D2002300E0DB1E01262C
:100F400006FA05F1491E214099409E40761E164042
:100F50003143F0BC01F034B80CED00E0064900F07C
:100F6000070208684FF6FF03184040EA0220034AD0
:100F700010430860704700000CED00E00000FA0527
:100F80002DE9F0470E46050065D0DFF81481D8F84A
:100F90000000F7B200F00F00B04207D288F80070EE
:100FA000D8F8000000F00F00B04254D128683D4C42
:100FB000810712D5400703D5206840F4E050206037
:100FC0002878000703D5206840F46040206020683E
:100FD000A96820F0F000084320602878C0072DD0D1
:100FE000304968680839012812D0022813D0032834
:100FF00011D00968890700292DDA216821F0030141
:1010000001432160FFF7F4FE814641F2883A0EE089
:1010100009688903EFE709688901ECE7FFF7E8FE53
:10102000A0EB0901514502D90320BDE8F0872068F3
:10103000696800F00C00B0EB810FEFD1D8F8001018
:10104000404601F00F01B14207D90770006800F077
:101050000F00B04201D00120E7E72878400705D50E
:101060002068E96820F4E0500843206028780007F1
:1010700006D52068296920F4604040EAC10020605C
:1010800000F03CF82168084AC1F30311515CC840E4
:10109000064908600020FFF7D3FE0020C5E70000E6
:1010A000003C024008380240AE2D00081C00002021
:1010B00001480068704700001C00002004480549F2
:1010C00000680968044AC1F38221515CC840704736
:1010D0001C00002008380240BE2D000804480549C5
:1010E00000680968044AC1F34231515CC840704746
:1010F0001C00002008380240BE2D0008154810B51D
:10110000006810F00C02144813D04110042A0FD0CC
:10111000082A0ED10F4C241F2268236802F03F02D8
:101120005B0207D52068C0F38810A0FB010106E030
:10113000084610BD2168C1F38811A1FB00010023FE
:10114000FFF746F82168C1F30141491C4900B0FB93
:10115000F1F010BD083802400024F4002DE9F84FEA
:10116000050076D02878DFF8F8B2BE4CC00749D029
:10117000DBF800105846C1F38101012908D000684E
:10118000C0F3810002280AD1201D0068400206D564
:101190002068800336D568680028E2D032E06868AD
:1011A000B0F5803F10D0B0F5A02F206810D020F40B
:1011B00080302060206820F4802020606868A0B122
:1011C000FFF716FE06460CE0206840F48030F4E796
:1011D00040F480202060F7E7FFF70AFE801B6428B8
:1011E00073D820688003F7D50CE0FFF701FE0646B0
:1011F00005E000BFFFF7FCFD801B6428F0D82068E5
:101200008003F7D42878DFF8608280074FF0000968
:101210003ED5DBF80010584611F00C0F09D00068DD
:10122000C0F3810002280BD18D48001F00684002E6
:1012300006D42068800715D5E868012809D111E097
:10124000E868B8B10120C8F80000FFF7D1FD0646F4
:1012500005E002E1FFF7CCFD801B0228C0D8206822
:101260008007F7D52068296920F0F80040EAC1001E
:1012700020600DE0C8F80090FFF7BAFD064604E0D4
:10128000FFF7B6FD801B02281FD820688007F7D41F
:101290002878000722D5724E744869696C3671B19E
:1012A00001210160FFF7A4FD074604E0FFF7A0FD60
:1012B000C01B022809D830688007F7D50EE0C0F8B7
:1012C0000090FFF795FD074605E083E0FFF790FDEE
:1012D000C01B02287ED830688007F7D428784007E2
:1012E00068D5DFF87CA100270AF1380ADAF8000097
:1012F000C0000BD4DAF8001041F08051CAF8001099
:10130000DAF80000012700F080500090584E306855
:10131000C00510D4306840F480703060FFF768FD7D
:10132000009005E0FFF764FD0099401A022851D8AB
:101330003068C005F6D54A4EA868683601280FD037
:101340000528306810D020F001003060306820F0AF
:1013500004003060A868B8B1FFF74AFD00900FE0C4
:10136000306840F00100F4E740F004003060F7E737
:10137000FFF73EFD0099411A41F28830814264D85E
:1013800030688007F4D50EE0FFF732FD009007E0EB
:10139000FFF72EFD0099411A41F28830814254D85E
:1013A00030688007F4D42FB1DAF8001021F08051B2
:1013B000CAF80010A869C0B3DBF80010C1F38101BE
:1013C00002294AD00228484607D0C8F86000FFF733
:1013D0000FFD00E039E005463AE04746C8F86000F6
:1013E000FFF706FD064604E0FFF702FD801B02281A
:1013F0002BD820688001F7D4D5E907010843A96AF2
:101400001C4A490802EB01416A6A41EA8211084319
:1014100095F82C1040EA01611148001F016001207D
:101420003866FFF7E5FC054605E014E0FFF7E0FC51
:10143000401B022809D820688001F7D50BE000BFC7
:10144000FFF7D6FC401B022802D90320BDE8F88F25
:1014500020688001F4D40020F8E70120F6E70000BE
:10146000083802400038024000004742800E4742E0
:10147000007000400000FFFF4FF0E02104280869E1
:1014800003D020F004000861704740F00400FAE740
:10149000704710B5401EB0F1807F01D3012010BD10
:1014A0004FF0E02460610F21601700F089FD0020FB
:1014B000A06107202061002010BD10B5FFF7E8FFF4
:1014C00010BD7047704730B590F83820012A20D001
:1014D000012280F83820022380F8393003685C68E4
:1014E00024F070045C6003685C680D682C435C60E9
:1014F00003689C6824F080049C6003689C684968C9
:101500000C439C6080F83920002180F83810084690
:1015100030BD022030BD10B5040003D094F839006E
:1015200010B107E0012010BD002084F838002046EB
:1015300000F00CF8022084F83900211D206800F02A
:101540009BFE012084F83900002010BD08B500681A
:10155000B0F1804F12D10A48016841F001010160E9
:101560000068002200F00100009011461C20FFF7E7
:10157000D5FCBDE808401C20FFF7C4BC08BD000036
:10158000403802400168CA6842F00102CA6000683F
:10159000016841F0010101600020704770B5044608
:1015A00090F83800012817D0012584F8385002201F
:1015B00084F839002068826822F0770222F47F42A2
:1015C00082600868502837D00DDC202859D005DC0F
:1015D00088B3102841D151E0022070BD302853D08B
:1015E00040283AD13FE060282ED070280BD0B0F5CB
:1015F000805F03D0B0F5005F2FD110E020688168D4
:1016000021F0070115E0CB68D1E90121206800F045
:101610007BFE2168886840F0770088601DE0CB6819
:10162000D1E90121206800F06FFE2068816841F453
:101630008041816011E01EE0CA684968206800F0BE
:1016400075FE5021206806E0CA684968206800F0ED
:101650007EFE6021206800F061FE84F83950002091
:1016600084F8380070BDCA684968206800F05EFEE2
:1016700040212068EFE700212068ECE71021206876
:10168000E9E720212068E6E730212068E3E770479A
:1016900070B50446006801694FF00005C943890729
:1016A00015D4C168C943890711D4E91E016101201D
:1016B0002076206880698007204602D0FFF7E7FF88
:1016C00004E000F098F8204600F096F825762068AF
:1016D0000169C943490717D4C168C943490713D4ED
:1016E0006FF004010161022020762068806910F407
:1016F000407F204602D0FFF7CAFF04E000F07BF8ED
:10170000204600F079F8257620680169C943090769
:1017100016D4C168C943090712D46FF008010161EA
:10172000042020762068C0698007204602D0FFF799
:10173000AEFF04E000F05FF8204600F05DF825768B
:1017400020680169C943C90617D4C168C943C906DD
:1017500013D46FF010010161082020762068C06961
:1017600010F4407F204602D0FFF791FF04E000F024
:1017700042F8204600F040F8257620680169C94308
:10178000C90708D1C168C943C90704D1891E0161CD
:10179000204600F033F820680169C943090609D4DE
:1017A000C168C943090605D46FF080010161204674
:1017B000FFF787FE20680169C943490609D4C1685B
:1017C000C943490605D46FF040010161204600F08D
:1017D00023F820680169C94389060BD4C168C9434D
:1017E000890607D46FF0200101612046BDE87040F2
:1017F000FFF768BE70BD704770470000044900687D
:101800000968884202D103490120487070470000EE
:1018100020000020000000207047704770B502686B
:1018200004461068D168536910F00F0F50D003F0D0
:10183000010501F4907635435DD0C20705D0CA0595
:1018400003D5E26B42F00102E263420705D5DA07F5
:1018500003D0E26B42F00202E263820705D5DA07A9
:1018600003D0E26B42F00402E263020705D5DA0717
:1018700003D0E26B42F00802E263E26B002A33D04D
:10188000800604D5880602D5204600F0D9FD2068E0
:101890004069E16BC0F38010090700D428B32046EB
:1018A00000F0B7FD2068416949061AD5416921F069
:1018B00040014161606BA0B11B490165606BFFF79E
:1018C00013F8002810D0606B016DBDE87040084728
:1018D000830610D58B060ED52046BDE8704000F07B
:1018E000AFBD2046FFF799FF70BD2046FFF795FF7B
:1018F0000020E06370BD030606D50B0604D5204624
:10190000BDE8704000F038BF4006F3D54806F1D579
:10191000D168204621F04001D160202184F839109F
:1019200000F0EEF970BD00007323000870B50400EC
:1019300004D094F83900002510B106E0012070BDF4
:1019400084F83850204600F023F8242084F8390029
:101950002068C16821F40051C160204600F0B6FD46
:101960002068016921F4904101612068416921F0FA
:101970002A0141612068C16841F40051C160E563FA
:10198000202084F8390084F83A00002070BD00005F
:101990002DE9F0470546D0F800C0DFF89C81022011
:1019A000664E012103220723DFF894A10024470299
:1019B00086B04FF00069C44530D1D6F800C04CF075
:1019C000100CC6F800C036680DF1040806F01006C9
:1019D00005965602009688E80F0069465046FFF7C4
:1019E00039F9594E57483060C6E90194C6E90347B2
:1019F0007461B461F461346230467462FFF756F882
:101A000018B1A62151A000F0FCFE6E630022114621
:101A10002520B563FFF782FA252051E0DFF84881E1
:101A2000C44552D1454E361FD6F800C04CF4003C98
:101A3000C6F800C036680DF1040806F400360596B5
:101A40000C26009688E80F0069465046FFF702F919
:101A5000474E4648C8463060C6E90194C6E9034788
:101A60004FF480797461C6E906494FF48030C6E9C5
:101A700008043046FFF71AF818B1D32133A000F05C
:101A8000C0FE6E63B56339483A4E1830E6E8020886
:101A9000402091C6374846F81449C6E906493462E1
:101AA0007462FFF703F818B1E52128A000F0A9FE41
:101AB0002E63002211462620B563FFF72FFA262059
:101AC000FFF720FA06B0BDE8F0872B4B9C45F9D113
:101AD000336843F02003336033680DF1040803F0EA
:101AE00020030593C023009388E807000820049092
:101AF00069462248FFF7AEF81248214E1838306088
:101B00008005C6E90104C6E903477461B461F46164
:101B1000346230467462FEF7C9FF20B14FF4897118
:101B20000AA000F06EFE6E63002211464720B563E6
:101B3000FFF7F4F94720C3E70010014044380240A2
:101B4000000002404064024098C400202E2E2F5313
:101B500072632F73746D3332663478785F68616CAA
:101B60005F6D73702E630000004400408860024087
:101B7000F8C4002058C500200014014000080240AD
:101B8000B8C50020F8B5044690F83A0020283CD1AA
:101B9000C1B3BAB394F83800012836D0012084F8D4
:101BA0003800A162A2850025E563222084F83A006E
:101BB000636B1748D863636B16481864636B1648E9
:101BC000D864606B134605650846666B216802465B
:101BD0003046091DFEF7D4FF206801684168009176
:101BE00084F83850C16841F48071C160206841694F
:101BF00041F0010141612068416941F040014161CA
:101C00000020F8BDFFE70120FBE70220F9E7000014
:101C1000CD230008092400088323000890F83A30F7
:101C2000202B1DD1D1B1CAB190F83830012B17D07B
:101C300081628285C2850021C163222280F83A2018
:101C400080F8381001684A6942F001024A61006870
:101C5000C16841F49071C160002070470120704755
:101C60000220704770B51349054600680968124C98
:101C700088420BD10122E11C0E48FFF7CFFF0D4A2D
:101C8000E1888032E0785054491CE1800949286895
:101C90004031096888420CD1074906480122091DD4
:101CA0004030FFF7BBFF054A208921791154401CC1
:101CB000208170BD9C000020000000202C28002006
:101CC000704790F83930202B18D1A9B1A2B190F803
:101CD0003830012B12D001628284C2840021C1639A
:101CE000212280F8392080F838100068C16841F05E
:101CF0008001C160002070470120704702207047BA
:101D00007047FEE7F1B52B4842F228310068B0FB7E
:101D1000F1F0009948430546009027A12848FEF7B6
:101D20009BFA2748FEF791FA82B225492548FFF72A
:101D3000C8FF254C0CE0228924A12648FEF713FB9E
:101D400050B925A12348FEF75EFB08B10020F8BD7D
:101D50000098411E0091EED24FF496763246002153
:101D60001C48009501F018F8002525811CA1144895
:101D7000FEF772FA1248FEF768FA82B2104911486B
:101D8000FFF79FFF05E0228910A11248FEF7EBFA4A
:101D900018B90098411E0091F5D20098401C00909F
:101DA000D5D0324600210B4800F0F6FF25810120F6
:101DB000F8BD00001C00002041540D0A0000000086
:101DC0003C4F0020DC000020000000200D0A4F4B9B
:101DD0000D0A00002C2800204552524F52000000EE
:101DE000415445300D0A0000194808B5016841F416
:101DF00000110160016801F400110091016841F4D3
:101E0000800101600068002200F48000009011460B
:101E10001020FFF783F81020FFF774F80022114616
:101E20001120FFF77BF81120FFF76CF80022114614
:101E30003920FFF773F83920FFF764F800221146C4
:101E40003A20FFF76BF8BDE808403A20FFF75AB890
:101E5000303802402DE9F04F3D4887B0002401683A
:101E600041F080010160016801F080010591016885
:101E700041F001010160016801F001010591016873
:101E800041F010010160016801F010010591016845
:101E900041F002010160016801F002010591016851
:101EA00041F008010160016801F008010591016835
:101EB00041F0040101600068DFF8989000F0040030
:101EC0004FF4AA460590002231464846FEF78BFFA4
:101ED000DFF884A04FF4A847002239465046FEF7A9
:101EE00082FFDFF878B04FF471480022414658462F
:101EF000FEF779FF01251A480095CDE901046946EE
:101F00001848FEF7A7FE0096CDE9015469464846F9
:101F10000394FEF79FFE0097CDE9015469465046B1
:101F20000394FEF797FECDF80080CDE90154694691
:101F300058460394FEF78EFE002211460620FEF757
:101F4000EDFF0620FEF7DEFF07B0BDE8F08F0000D2
:101F5000303802400010024000040240000C0240F1
:101F6000000011100000024010B5134886B04FF079
:101F7000804101604EF65F210024C0E9011440F267
:101F80007751C0E90314FFF7C6FA00B1FEE74FF43A
:101F90008050009069460848FFF700FB00B1FEE75B
:101FA000049404A904480594FFF78DFA002800D092
:101FB000FEE706B010BD000020000020FEE77047DD
:101FC0000907090E002806DA00F00F0000F1E020F2
:101FD00080F8141D704700F1E02080F8001470476D
:101FE000704700002DE9F74380464A48894642F28F
:101FF00028310068B2B0B0FBF1F03499484306468E
:10200000349045496846FEF727F94FF4FA773A4687
:102010000021424800F0C0FE414C002541A125812D
:102020004448FEF719F94348FEF70FF982B24149D7
:102030004148FFF746FE0BE0228940A13748FEF7F2
:1020400092F948B93EA13548FEF7DDF9002846D19E
:102050003498411E3491EFD23498401C34903FD0D4
:102060003A4600212D48349600F096FE258136A18F
:102070003048FEF7F1F841462E48FEF7DAF8694697
:102080002C48FEF7D6F84846FEF7DFF8021D30A1CF
:10209000684600F009FC69462648FEF7CAF82EA1FA
:1020A0002448FEF7C6F849462248FEF7C2F82CA19C
:1020B0002048FEF7BEF81F48FEF7C7F882B21D4958
:1020C0001D48FFF7FEFD0EE0228926A11348FEF70A
:1020D0004AF960B91AA11148FEF795F918B1002024
:1020E00035B0BDE8F0833498411E3491ECD2349879
:1020F000401C3490F4D0094948463496FEF7ACF8B9
:102100004FF496720021054800F046FE2581658156
:102110000120E5E71C000020C82D00082C28002025
:102120000000002041542B43495053454E440D0AB2
:10213000000000003C4F0020DC0000203E2000009A
:102140004552524F52000000504F5354200000009F
:1021500025640D0A0D0A00006D73673D0000000044
:102160000D0A1A000D0A0D0A00000000704710B594
:10217000FEF744FEBDE81040FFF79FB930B5244894
:1021800093B00025016841F080510160006800F0C3
:10219000805011901F48016841F44041016000687F
:1021A000022400F4404011900120009000040190AE
:1021B0008001CDE90640082008904FF4A8700990EE
:1021C00004200A900B906846FEF7C8FF00B1FEE7B6
:1021D0000CA90F2081E831004FF4A0500F9010900F
:1021E00002210CA8FEF7CCFE00B1FEE7FEF760FF6F
:1021F0004FF47A71B0FBF1F0FFF74BF90420FFF7D1
:102200003BF900221146501EFEF788FE13B030BD88
:1022100040380240007000401048016841F47001ED
:1022200001600F48016841F0010101600C4A002182
:102230000832116002680B4B1A400260031D0A4A03
:102240001A60026822F48022026005480C300160A6
:1022500002495806803908607047000088ED00E0A8
:1022600000380240FFFFF6FE103000240148FFF75F
:102270000FBA000020000020F0B502681B4B1C4C78
:102280009F031C4D1C4E984207D0B84205D0A04277
:1022900003D0A84201D0B04204D122F0700C4A68A9
:1022A00042EA0C02984210D0B8420ED0A0420CD0A4
:1022B000A8420AD0B04208D0104CA04205D0104C21
:1022C000A04202D00F4CA04203D122F44074CA684D
:1022D000224302608A68C2620A688262984201D11F
:1022E0000969016301214161F0BD00000000014066
:1022F0000004004000080040000C00400040014085
:10230000004401400048014010B5846842EA0322BD
:1023100024F47F440A432243826010BD826822F085
:1023200070020A4342F007018160704710B5036AEA
:10233000046A24F001040462846924F0F00444EA8D
:10234000021423F00A020A438461026210BD10B530
:10235000036A23F0100303628369046A23F4704361
:1023600043EA023224F0A00343EA011182610162D0
:1023700010BD10B5806B0021C185C184FFF74DFAF7
:1023800010BD70B5846B2068406994F83910C0F3B3
:10239000C0100025212904D118B1E584204600F0A1
:1023A00046F82068406994F83A10C0F3801022295A
:1023B00004D118B1E585204600F02BF8E06B40F021
:1023C0001000E0632046FFF728FA70BD10B5014603
:1023D000806B09680968C90513D40021C1850168AB
:1023E000CA6822F48072CA6001684A6922F0010258
:1023F0004A6101684A6922F040024A61202180F85E
:102400003A10FFF72FFC10BD10B5806BFFF758FC9A
:1024100010BD0168CA6822F49072CA6001684A69F6
:1024200022F001024A61202180F83A1070470168C9
:10243000CA6822F0C002CA60202180F839107047B3
:1024400010B590F83A10222901D0022010BD816801
:10245000B1F5805F11D00169002901681FD049687A
:1024600001F07F03816A4A1C82620B70C18D491E94
:102470000904090CC18518D026E00269816A002A86
:102480000268526805D0D2B20A80816A491C816212
:10249000ECE7C2F308020A80816A891CF7E74A6800
:1024A000816A4B1C83620A70E0E70168CA6822F403
:1024B0009072CA6001684A6922F001024A612021D3
:1024C00080F83A10FFF7CEFB002010BD2DE9F04157
:1024D00004460068016921F44052E168114301613A
:1024E0002168C86849F20C6290432369A268E569D3
:1024F0001A4363692B431A430243CA60216848693F
:1025000020F44072A06910434861E1696425B1F587
:10251000004F9748974A21684FF032083FD09142C8
:1025200001D081427CD1FEF7D9FD00EBC00101EB67
:10253000001061688900B0FBF1F6FEF7CFFD00EBFB
:10254000C00101EB001061688900B0FBF1F0B0FB45
:10255000F5F06FF01801484306EB800108EB01101D
:10256000B0FBF5F000F0F006FEF7B8FD00EBC0019F
:1025700001EB001061688900B0FBF1F0B0FBF5F0F1
:1025800006EB0016FEF7AAFD00EBC00101EB001000
:1025900061688900B0FBF1F7FEF7A0FDD2E091423F
:1025A00001D081423DD1FEF799FD00EBC00101EB66
:1025B000001061684900B0FBF1F0B0FBF5F00601D6
:1025C000FEF78CFD00EBC00101EB001061684900D3
:1025D000B0FBF1F7FEF782FD00EBC00101EB00104C
:1025E00061684900B0FBF1F0B0FBF5F06FF0180145
:1025F000484307EB800108EBC100B0FBF5F000F0A9
:10260000F80006EB4006FEF769FD00EBC00101EBA8
:10261000001061684900B0FBF1F7FEF75FFD3CE098
:1026200055E0FEF74BFD00EBC00101EB00106168C7
:102630004900B0FBF1F0B0FBF5F00601FEF73EFDFE
:1026400000EBC00101EB001061684900B0FBF1F73D
:10265000FEF734FD00EBC00101EB0010616849009A
:10266000B0FBF1F0B0FBF5F06FF01801484307EB59
:10267000800108EBC100B0FBF5F000F0F80006EBBC
:102680004006FEF71BFD00EBC00101EB0010616886
:102690004900B0FBF1F7FEF711FD00EBC00101EBC3
:1026A000001061684900B0FBF1F0B0FBF5F06FF08D
:1026B0001801484307EB800108EBC100B0FBF5F0BF
:1026C00000F00700216830448860BDE8F081FEF723
:1026D000F5FC00EBC00101EB001061688900B0FB64
:1026E000F1F6FEF7EBFC00EBC00101EB00106168B6
:1026F0008900B0FBF1F0B0FBF5F06FF01801484332
:1027000006EB800108EB0110B0FBF5F000F0F006DD
:10271000FEF7D4FC00EBC00101EB001061688900FA
:10272000B0FBF1F0B0FBF5F006EB0016FEF7C6FCCF
:1027300000EBC00101EB001061688900B0FBF1F70C
:10274000FEF7BCFC00EBC00101EB001061688900E2
:10275000B0FBF1F0B0FBF5F06FF01801484307EB68
:10276000800108EB0110B0FBF5F000F00F00A9E7C5
:10277000001401400010014090F83910212901D0C7
:10278000022070478168B1F5805F016A0BD04A1C56
:102790000262026809785160C18C491E0904090C63
:1027A000C1840ED017E009880268C1F308015160A6
:1027B00001690029016A02D0491C0162ECE7891C09
:1027C000FBE70168CA6822F08002CA600068C1683D
:1027D00041F04001C1600020704700000148FFF750
:1027E0001DB800005C0000200148FFF717B800008A
:1027F0009C0000200148FFF711B80000DC00002019
:10280000FEE7FEE72DE9F04700242DED028B0125C0
:10281000DFED248A904689468246B0EE688A2F46CC
:1028200026461DE01AF80600484508D108EB84004A
:10283000012580ED008AB0EE688A641C0FE02E2826
:102840001CD0EFB1303800EE100AF0EE480AB2EEBC
:10285000041AB8EEC00AB0EE408A00EE818A761CF7
:102860005046FDF7F2FCB042DCD808EB840080ED66
:10287000008A601CBDEC028BBDE8F0870027EEE704
:1028800005EB85014D00303800EE100AF8EEC00A65
:1028900000EE105AB8EEC01A80EE810A30EE088AB7
:1028A000DDE70000000000000FB4084B10B504A9DC
:1028B00002AA039800F01CF8044602A9002000F0C8
:1028C000C1F8204610BC5DF814FB0000452A000842
:1028D00002E008C8121F08C1002AFAD170477047E9
:1028E000002001E001C1121F002AFBD17047000047
:1028F0002DE9FF4F89B09B460446002506E02528B8
:102900000BD05A460B999047641C6D1C2078002808
:10291000F5D10DB02846BDE8F08F0027B84601225A
:10292000474900E0074314F8013F203B02FA03F057
:102930000842F7D120782E2819D114F8010F47F05A
:1029400004072A280ED06FF02F022078A0F1300162
:1029500009290CD808EB880102EB410100EB0108C2
:10296000641CF2E70A98641C50F8048B0A902078E3
:102970000028CED0642808D0692806D075281ED03B
:102980005A460B9990476D1C58E00A994FF00A0976
:1029900001C90A91002802DA40422D2102E03905DE
:1029A00004D52B218DF82010012103E0F90704D074
:1029B0002021F7E78A4608AE0DE00021FAE70A99E0
:1029C0004FF00A0901C90A91F7E74946FDF74DFCA6
:1029D000303106F8011D0028F7D1ADEB060000F1FB
:1029E0002009780701D44FF00108C84502DDA8EBA3
:1029F000090000E000208046002706E008A85A46AB
:102A0000C05D0B9990476D1C7F1C5745F6DB04E0B9
:102A100030205A460B9990476D1CB8F10001A8F17F
:102A20000108F5DC05E016F8010B5A460B999047B2
:102A30006D1CB9F10001A9F10109F4DC641C65E722
:102A4000092801000A68531C0B60107070470000D1
:102A5000F7B51A4D0F4642F228362968029AB1FBA3
:102A6000F6F151430291014602221548FFF729F978
:102A7000144C06E01248E28813A18030FDF773FC85
:102A800018B90298411E0291F4D20298401C02909B
:102A900013D028683221B0FBF6F048430290084872
:102AA00039468030FDF716FF05486422002180304A
:102AB00000F072F90020E0800120FEBD1C00002023
:102AC0009C000020000000200D0A000008B5FEF761
:102AD0009DF9FFF753FBFFF7BDF9FFF785F98B4829
:102AE0008949002501604FF41641C0E901150C2405
:102AF000C560C0E904548561C561FEF717FF00B1E8
:102B0000FEE7FFF731FA8148814940384FF4E1365A
:102B10000160C0E90165C560C0E904548561C56113
:102B2000FEF704FF00B1FEE778487A4940300160C3
:102B3000C0E90165C560C0E904548561C561FEF75F
:102B4000F5FE00B1FEE7012273497048FFF71AF85D
:102B500071496E480122491C4030FFF713F86B4859
:102B60007C38FEF70FFD6C4CE41E20780028FCD06A
:102B70004FF47A70FEF740F84FF4FA763046FFF7DC
:102B8000C1F808E06420FEF737F83046FDF778FD1D
:102B90006420FEF731F83046FDF754FC0028F1D0F0
:102BA0005E4842F22831DFF878810068B0FBF1F02E
:102BB00032214843009060780028FCD06570594865
:102BC00080F83C5005E06420FEF716F8E068FDF759
:102BD000B4FD3246544955A0FDF7BEFD0028F2D0A1
:102BE0004F4A54A10B3A5048FDF7DCFB08B1A570E1
:102BF00001E00120A0704FF4C87200214A4800F0A3
:102C0000CBF83220FDF7F8FF464932223C314BA089
:102C1000FFF71EFF0028F7D03C4849A18030FDF7A0
:102C20001BFB3A493F4880313C30FDF702FB3748F7
:102C300064220021803000F0AFF8E580A07830B940
:102C40004EE06420FDF7D8FFE068FDF776FD3246E0
:102C500035493EA0FDF780FD0028F2D0304A3DA165
:102C60003148FDF79FFB00270EE02D48FDF7EDFAF8
:102C70000146B81D814201D808F8075008EB07014A
:102C8000897908F807107F1C2548FDF7DEFAB8425D
:102C9000EBD8234A23480B3A21493C30FDF72EFB61
:102CA0001F480B38FDF734FC1E482FA13C30FDF7C0
:102CB000C0FA1B491B480B393C30FDF7BAFA05E056
:102CC0006420FDF799FFE068FDF737FD15493246AE
:102CD0003C3127A0FFF786F900287FF46CAFEFE7BF
:102CE0000F480B38FDF714FC05E06420FDF784FF66
:102CF000E068FDF722FD0B4932463C3121A0FFF789
:102D000071F90028E9D1F0E7004400409C00002060
:102D10000010014000140140030000201C000020AE
:102D200077C40020209D00204C7600202F524C2E8E
:102D3000747874004D616E75616C20003140000044
:102D40004032354035303040302E35002F54482E3B
:102D500074787400436F6E74656E742D4C656E6785
:102D600074683A2000000000404175746F20000034
:102D70002F486F6D652F437265617465446174619E
:102D8000416C6C002F486F6D652F437265617465EF
:102D90004461746100000000002301E0C1545B1C29
:102DA0009342FBDB70470006101600061016000069
:102DB00000000000000001020304060708090000EB
:102DC000000001020304000020485454502F312E0B
:102DD000310D0A486F73743A20313431333236344E
:102DE0002E736F6D65652E636F6D0D0A436F6E7484
:102DF000656E742D547970653A206170706C6963EA
:102E00006174696F6E2F782D7777772D666F726D8D
:102E10002D75726C656E636F6465640D0A436F6E29
:102E20006E656374696F6E3A204B6565702D416CF9
:102E30006976650D0A436F6E74656E742D4C656E10
:102E40006774683A20000000682E00080000002027
:102E500020000000D0280008882E00082000002054
:102E6000F8C90000E0280008000000000000000091
:102E70000000000000000000010000001000000041
:082E8000000000000024F40032
:040000050800019955
:00000001FF
