:020000040800F2
:10000000400A0020010100081B2C00087527000889
:10001000192C0008670B0008C12F00080000000021
:100020000000000000000000000000003F2C00085D
:10003000B70B0008000000003D2C0008412C000810
:100040001B0100081B0100081B0100081B01000820
:100050001B0100081B0100081B0100081B01000810
:100060001B0100081B0100081B010008690B0008A8
:100070001B0100081B0100081B010008750B00088C
:10008000810B00081B010008A10900081B010008E2
:100090001B0100081B0100081B0100081B010008D0
:1000A0001B0100081B0100081B0100081B010008C0
:1000B0001B0100081B0100081B0100081B010008B0
:1000C0001B0100081B0100081B0100081B010008A0
:1000D0001B010008A92F0008B52F00081B0100080C
:1000E0001B0100081B0100081B010008DFF80CD0F1
:1000F00000F022FC00480047C13A0008400A0020F6
:100100000648804706480047FEE7FEE7FEE7FEE7B1
:10011000FEE7FEE7FEE7FEE7FEE7FEE7C92C000884
:10012000ED000008202A04DB203A21FA02F0002129
:10013000704721FA02F3D040C2F1200291400843F7
:1001400019467047421C10F8011B0029FBD1801A88
:100150007047034611F8012B00F8012B002AF9D152
:1001600018467047F0B480EA0102D40F4200B2EBA7
:10017000410F02D20246084611464A0042D0C30D42
:10018000DDB2C1F3C752AD1A202D35DAC1F3160125
:1001900041F4000204B15242C5F1200602FA06F110
:1001A0002A411044B3EBD05F23D0C4B1012DA0EBA2
:1001B000C35009DCF0BC4FF0004202EAC352DBB28C
:1001C00000F5000000F07EB9400000F1807000EB07
:1001D000C350A0F1807040EAD170490009E049089D
:1001E00041EAC071A0EBC35000F50000400800EBED
:1001F000C350F0BC00F05DB96142012202EB410145
:10020000001BF6E7F0BC704781F00041AAE780F0E0
:100210000040A7E730B480EA010202F0004530F068
:10022000004221F0004013D090B1C30DD40DC2F3B1
:100230001601C0F31600E41A41F4000140F4000274
:100240007D34914201D3641C00E04900002C02DAA5
:1002500030BC002070474FF400000023914201D3CE
:10026000891A034340084FEA4101F7D151B1914245
:1002700002D14FF0004105E002D24FF0010101E050
:100280006FF0010103EBC450284430BC00F011B9F9
:100290002DE9F04D81EA030404F0004B21F0004504
:1002A00014464FF0000A23F0004150EA050220D026
:1002B00054EA01021DD0C5F30A570246C5F31303E1
:1002C000C1F31300C1F30A5640F4801543F48013C0
:1002D000A7EB0608101BD64608F2FD3873EB0500A5
:1002E00002D308F1010801E092185B41B8F1000F58
:1002F00003DA00200146BDE8F08D00204FF48011A4
:10030000064684460EE0171B73EB050705D3121B48
:1003100063EB050306434CEA010C49084FEA300041
:1003200092185B4150EA0107EDD152EA030012D066
:1003300082EA040083EA0501084305D0101BAB41A3
:1003400006D20122002306E000224FF0004302E023
:100350006FF0010253101AEB06004CEB085110EB42
:100360000A0041EB0B01BDE8F04D00F017B9C10FD9
:1003700080EAE0700844CA079623002100F0A2B882
:1003800096230022114600F09DB80EB540F233418D
:1003900002910021CDE900110A460B4600F00DF94B
:1003A00003B000BD20F00040C10DC0F3160040F4C2
:1003B00000007F2901DA00207047962903DCC1F193
:1003C0009601C8407047963988407047C1F30A5279
:1003D00010B5C1F3130140F2FF3341F480119A428A
:1003E00001DA002010BD40F233439A42A2F23342B8
:1003F00003DC5242FFF796FE10BD904010BD00F0A6
:10040000004230F000400AD0C10D01F56071C0F328
:10041000160042EA0151C20840071143704700200C
:100420000146704730B50B460146002020220124CA
:1004300009E021FA02F59D4205D303FA02F5491BB2
:1004400004FA02F52844151EA2F10102F1DC30BDC8
:100450002DE9F05F0546002092469B4688460646F9
:10046000814640241BE02846414647462246FFF786
:1004700059FE53465A46C01A914110D311461846A8
:10048000224600F06BFA2D1A67EB01084F46224610
:100490000120002100F062FA17EB00094E41201EF6
:1004A000A4F10104DFDC484631462A464346BDE854
:1004B000F09F0029A8BF7047401C490008BF20F0EA
:1004C0000100704710B4B0FA80FC00FA0CF050EA5A
:1004D000010404BF10BC704749B1CCF1200421FADB
:1004E00004F411FA0CF118BF012121430843A3EBD6
:1004F0000C01CB1D4FEA00614FEA102042BF0020E3
:1005000010BC704700EBC35010440029A4BF10BCBE
:100510007047401C490008BF20F0010010BC704724
:1005200080EA010210B502F00043400022D04A00E8
:100530001FD0010E01EB1261C0F35600C2F3560248
:1005400040F4000042F40002A0FB022000047F39C6
:10055000140400D0401C50EA124001D44000491E4F
:10056000C2B20C0604EBD010401C4008802A02D016
:1005700003E0002010BD20F00100002900DA002077
:10058000184310BD420005D0C0F3C75252429142F9
:1005900001DC0020704700EBC150704710B5141EFD
:1005A00073F1000408DA401C41F1000192185B412C
:1005B0001A4301D120F0010010BD2DE9F04D924603
:1005C0009B4611B1B1FA81F202E0B0FA80F220321A
:1005D000904600F0C3F904460F4640EA0A0041EA9B
:1005E0000B0153465A46084313D0114653EA010003
:1005F00019D0C8F140025046FFF794FD05460E465B
:1006000050465946424600F0A9F9084305D001205A
:1006100004E020463946BDE8F08D0020054346EA57
:10062000E0762C4337430A986305E40AA0EB080000
:100630000022FD0A44EA47540A3002D50020014650
:10064000E9E7010510196941DDE90845001969412B
:10065000BDE8F04DA2E72DE9FE4F804681EA030098
:10066000C00F0C46009021F0004123F00045B8EB8C
:100670000200A94105D24046214690461C460B4641
:10068000024623F00040104347D0270DC7F30A006D
:10069000C3F30A510290401A019040286BDAC3F369
:1006A000130040F4801B0098924620B10023D2EB47
:1006B000030A63EB0B0B01985946C0F14002504608
:1006C00000F04CF906460D4650465946019A00F096
:1006D00054F910EB08006141002487EA115284EAC2
:1006E000E7731A4340D0009A62B3019A012A4FEA95
:1006F000075215DC001B61EB02014FF0004202EAD9
:100700000752CDE90042001C41F5801132462B46CC
:10071000FFF753FF03B0BDE8F08F40462146F9E7ED
:10072000001B61EB0201001C41F5801300185B41C6
:100730002018A2F5001747EB030140EAD570B6195F
:100740006D4111E06D084FEA360645EAC0754FEA83
:100750000752001B61EB0201001C41F580114908A2
:100760004FEA30000019514132462B4603B0BDE834
:10077000F04FFFF713BF0098012240000023D0EB99
:10078000020263EBE073009821464FEAE074B8EB95
:10079000000061EB0401E9E783F000435BE781F0CF
:1007A000004158E72DE9FE4F81EA030404F00044BC
:1007B00021F0004100944FF0000B23F0004350EA79
:1007C00001045ED052EA03045BD0C3F30A54C1F3C0
:1007D0000A552C44A4F2F3340194A0FB0254C1F353
:1007E000130141F48011C3F3130343F4801301FB9D
:1007F000024400FB034E840A970A44EA815447EA04
:100800008357A4FB076802958D0A05FB07854FEA0D
:10081000932C04FB0C542705029D4FEA065847EA27
:100820001637B5EB08056EEB070C870E920E47EAFC
:10083000811742EA8312A7FB0201B6EB0B0164EBBE
:1008400000042B0D43EA0C335E1844EB1C50DA46CF
:100850005146E7FB0201C5F313044FEA0B3343EAA9
:1008600014534FEA0432019C43EA0603A4F10C043A
:100870000294009CCDE900B4FFF79FFE03B0BDE8F1
:10088000F08F00200146F9E7C1F30A52C1F31301CA
:1008900040F2FF3341F480119A4202DA002001460F
:1008A000704740F233439A42A2F2334202DC524292
:1008B000FFF738BC00F052B810B500F0004420F04B
:1008C0000040C20DC0F3160040F400007F2A07DA92
:1008D0007D2A00DA7D22763A00FA02F1002008E053
:1008E000962A09DCA2F1760100FA01F1C2F1960222
:1008F000D040FFF7DEFD01E0963A9040002C00D09A
:10090000404210BD30B5041E71F1000404DB4FF00D
:100910000044404264EB0101141E73F1000405DB46
:100920001C464FF00043524263EB0403994208BF58
:10093000904230BD00207047064C074D06E0E0684D
:1009400040F0010394E8070098471034AC42F6D316
:10095000FFF7D0FB5044000870440008202A04DB55
:10096000203A00FA02F1002070479140C2F12003C2
:1009700020FA03F3194390407047202A06DBCB1777
:10098000203A41FA02F043EAE07306E041FA02F34A
:10099000D040C2F120029140084319467047000040
:1009A000014800F0EFB900003400002070B50446A3
:1009B00000688168C943C9071CD1816821F0010121
:1009C000816000F015FE05460FE000BF00F010FE4C
:1009D000401B022809D9A06A40F01000A062E06A1A
:1009E00040F00100E062012070BD20688068C043D3
:1009F000C007EBD0002070BD10B50146406A826A86
:100A000012F0500F05D0006A026BBDE81040084696
:100A10001047816A41F40071816201688968C1F3FD
:100A2000424107290CD1C16851B9816A21F4807112
:100A30008162816AC90403D4816A41F00101816243
:100A400000F090F910BD10B5406A816A41F0400194
:100A50008162C16A41F00401C16200F092F910BDE7
:100A600010B5406A00F08CF910BD0000F8B5002602
:100A70000446009600688168C943C90728D0816888
:100A800041F001018160134813490068B0FBF1F0A7
:100A900000E0401E00900028FBD100F0A9FD0546B3
:100AA00011E000BF00F0A4FD401B02280BD9A06A92
:100AB00040F01000A062E06A40F00100E06284F8BB
:100AC00024600120F8BD20688068C043C007E9D1D8
:100AD0000020F8BD2C00002040420F007CB50B4CDC
:100AE00005468DF8041060680090012301AA217862
:100AF000284600F0DBFF0028F5D129686FF01000D0
:100B00004861642000F07AFC7CBD000000000020F9
:100B100010B504460121FFF7E1FF2046BDE8104073
:100B20000721FFF7DBBF00000649472805D05C28F6
:100B300002D10870012048707047472008700020DB
:100B4000F9E700000000002070B505460C460A20B9
:100B500000F054FC21462846BDE87040FFF7BEBFB8
:100B60000121FFF7BBBFFEE7014800F033BB0000E7
:100B700074050020014800F02DBB0000B8050020DE
:100B8000014800F027BB0000FC05002030B590F8BC
:100B900040500124AC40C56B6C60046863604368DE
:100BA000102B036803D099600068C26030BD9A6062
:100BB0000068C16030BD704701B50748074900684B
:100BC000B0FBF1F0009948430090411E009101D321
:100BD0000846FAE708BD00002C00002040548900B8
:100BE00001B5074807490068B0FBF1F00099484398
:100BF0000090411E009101D30846FAE708BD0000AD
:100C00002C000020405489007CB505460020134C80
:100C100001900223606801AA4100009121782846D2
:100C200000F03CFE0028F4D1642000F0E7FB9DF8C2
:100C300005009DF8041000EB012080B2FFF7A5FB32
:100C40004FF03332064BFFF723FBFFF7BFFB84B2B5
:100C5000642000F0D3FB20467CBD00000000002093
:100C60003333F33F70470000F8B50024009490F848
:100C700024202546012A12D0012280F824204A6827
:100C80001F23072A0DD20668776B521E02EB8202E1
:100C900093409F430B6893401F43776319E0022002
:100CA000F8BD06680D2A0AD2376BD21F02EB82020A
:100CB00093409F430B6893401F43376309E0F76AF3
:100CC0000D3A02EB820293409F430B6893401F430F
:100CD000F7620A68072306680A2A0AD3F7680A3AFD
:100CE00002EB420293409F438B6893401F43F7609F
:100CF00008E0376902EB420293409F438B689340C0
:100D00001F4337610A68102A01D0112A20D1124BE3
:100D100002689A4217D193681B0219D4936843F46E
:100D2000000393600968102912D10C490C4A096824
:100D3000B1FBF2F101EB8101490000E0491E009195
:100D40000029FBD104E0816A41F020018162012485
:100D500080F824502046F8BD002401402C000020DB
:100D600040420F00044900680968884202D10349E3
:100D700001200870704700003400002008000020A7
:100D80007047704710B5044600684168890626D54B
:100D90000168890723D5A16AC90603D4A16A41F471
:100DA0000071A1628168C1F34241072910D1E16855
:100DB00071B9416821F020014160A06A20F480707F
:100DC000A062A06AC00403D4A06A40F00100A0623F
:100DD0002046FFF7C7FF21686FF012000860206807
:100DE000416809062ED5016849072BD5A16AC906B5
:100DF00003D4A16A41F40051A1628168C1F30231B8
:100E0000072909D04168490515D48168C1F34241D9
:100E1000072910D1E16871B9416821F08001416072
:100E2000A06A20F48050A062A06AC00503D4A06A22
:100E300040F00100A0622046FFF714FF21686FF028
:100E40000C0008602068416849060DD50068C0079D
:100E50000AD0A06A40F48030A062204600F094F8E6
:100E600021686FF00100086010BD00002DE9F0411D
:100E70004FF0000704003D467ED0A06A002628B946
:100E8000E66284F82460204600F080F82046FFF7F0
:100E90008DFDA16AC90600D420B1A06A40F01000FF
:100EA000A06269E0A16A21F4885141F00201A162C7
:100EB0006268E169E3680A4347EA43010A43A168BB
:100EC0004FF48077B94209D0012907D05FF00001C3
:100ED000D4F814C0BCF1010F02D00AE03946F7E79C
:100EE000F3B1A36A43F02003A362E36A43F0010372
:100EF000E3622368D3F804C02CF4694C4CEA010C7B
:100F0000C3F804C021688B68DFF870C003EA0C03E3
:100F100013438B60A168B9420BD0012909D00CE0C2
:100F2000DFF85CC0A3690CEB43330B4343F400616F
:100F3000DFE7218A0D05A5F580152168CB6A23F42A
:100F400070032B43CB62216889680E4B1940914294
:100F500008D1E662A16A21F0020141F00101A1621B
:100F6000BDE8F081A06A20F0020040F01000A0620D
:100F7000E06A40F00100E0620120F1E7FDF7E1FFE7
:100F800000E0FFFFFE0E1FFF7047000030B5054672
:100F900000681B4985B0884230D11A48816941F404
:100FA000007181618069694600F40070049001203D
:100FB000009003200190144800F032FA144C1348BA
:100FC0008021206000206060C4E9020149002161A5
:100FD0008900C4E90510E061204600F0A5F918B1C8
:100FE0007A210CA001F0EDFF2C62002211461220A4
:100FF000656200F0BBFE122000F0ACFE05B030BD13
:101000000024014000100240000801400800024096
:10101000740500202E2E2F5372632F73746D33329C
:10102000663178785F68616C5F6D73702E63000065
:101030002DE9F047894604463B4900683B4F0E1DA9
:101040009046884201D0B84207D1306810F4702F22
:1010500003D001252846BDE8F08794F82400012834
:101060000CD0012084F824002046FFF7FFFC050087
:101070004FF0000004D084F82400EBE70220EAE7F8
:10108000A16A40F60162914341F48071A162216836
:10109000B94218D1326812F4702F14D0A16A41F409
:1010A0008011A1623168490505D5A16A21F400517A
:1010B00041F48051A162A16AC9040AD5E16A21F014
:1010C0000601E16206E0A26A22F48012A262496887
:1010D000E9E7E06284F82400216A15488862216A01
:1010E0001448C862216A1448086321686FF002003E
:1010F00008602068816841F48071816021684346FE
:101100004A464C31206A00F041F920688168C1F3F9
:1011100042410729816803D041F48011816099E739
:1011200041F4A001FAE7000000240140002801403A
:10113000F9090008610A0008470A000810B590F88C
:1011400021100024022903D00421816301243DE001
:1011500001680A6822F00E020A6001680A6822F03B
:1011600001020A601A4A0168914201D1012121E07D
:10117000174A1432914201D110211BE0144A28323F
:10118000914201D1891515E0114A3C32914201D1B9
:1011900089140FE00E4A5032914202D14FF480314F
:1011A00008E00B4A6432914202D14FF4801101E011
:1011B0004FF08071064A083A5160012180F82110F1
:1011C000002180F82010416B01B18847204610BDF6
:1011D000080002402DE9F05FC16B0C6801680B68E4
:1011E000D0F840C0042202FA0CF2494DDFF824A1E5
:1011F000494E4A4FDFF828B1DFF828E122422CD0CF
:101200005A072AD50A68920603D40A6822F0040213
:101210000A600168A94201D1042219E0514501D1B7
:10122000402215E0B14202D14FF4806210E0B94291
:1012300002D14FF480420BE0594502D14FF4802295
:1012400006E0714502D14FF4800201E04FF0806268
:101250002F4908394A60C16A3BE04FF0020808FA9A
:101260000CF818EA040F4FF000094FF0010235D0D6
:101270005FEA837832D50B689B0605D40B6823F0B0
:101280000A030B6080F821200168A94201D10222E3
:1012900019E0514501D1202215E0B14202D14FF4AD
:1012A000007210E0B94202D14FF400520BE05945F0
:1012B00002D14FF4003206E0714502D14FF4001222
:1012C00001E04FF00072124908394A6080F820901E
:1012D000816A00291AD0BDE8F05F0847082505FAA1
:1012E0000CF5254212D01B0710D50B6823F00E0316
:1012F0000B6090F84010C36B02FA01F159608263F1
:1013000080F8212080F82090016BE2E7BDE8F09F93
:10131000080002401C00024030000240440002402D
:10132000580002406C00024030B548B308C8154967
:1013300014221944B1FBF2F18900C163124981639F
:10134000022141771A6843F6F0718A43D0E900140C
:101350002143D0E902452C432143046921434469D8
:101360002143846921431143196000214162816254
:10137000C16201634163012242770177084630BDB3
:10138000012030BDF8FFFDBF0000024070B50446EB
:1013900090F82000002501280CD0012084F82000BE
:1013A00094F821600020012E06D084F82000022548
:1013B000284670BD022070BD022684F82160A0631B
:1013C0002068066826F0010606602046FFF7DEFB6F
:1013D000E06A00282068016802D041F00E0106E0B2
:1013E00021F0040101602068016841F00A010160F8
:1013F0002068016841F001010160D9E770B5044639
:1014000000F0F6F80546601C02D004480078044459
:1014100000F0EEF8401BA042FAD370BD200000207F
:101420002DE9F84FDFF890A100220AF1040B1446D1
:1014300001274FF00F090BF1040E00BF0B6807FAEC
:1014400004F52B40AB4274D1DFF870C14E68A6EBB7
:101450000C0866452BD00DDC032E34D005DC36B3EA
:10146000012E19D0022E2FD11BE0112E16D0122ED4
:101470002AD119E0B8F5881F19D006DCB8F5803FED
:1014800015D0B8F5801F1FD111E0B8F5001F0ED0A0
:10149000B8F5041F18D10AE0CA6815E0CA68121D21
:1014A00012E0CA6808320FE0CA680C320CE08A68A1
:1014B0002AB1012A4FF0080203D0456104E004225A
:1014C00002E0056100E00022FF2B01D8064601E0A2
:1014D00000F104064FEA840501D9A5F12005D6F8EC
:1014E00000C009FA05F82CEA080C02FA05F54CEAE6
:1014F000050CC6F800C04D68ED0057D5304DAE69FB
:1015000046F00106AE61AD6924F0030605F0010561
:1015100000952C4D06EB050CDCF80850A6074FEAA9
:10152000167809FA08F6B543274EB04202D10026D4
:1015300010E03BE0254EB04201D101260AE0244EE6
:10154000B04201D1022605E0224EB04201D103266D
:1015500000E0042606FA08F62E43CCF808604D6831
:10156000DAF80060ED03554601D51E4300E09E43C6
:101570002E604D68DBF80060AD035D4601D51E436B
:1015800000E09E432E604D68DEF80060ED02754677
:1015900001D51E4300E09E432E604D68AD020E4D06
:1015A0002E6801D51E4300E09E432E60641C102C63
:1015B000FFF444AFBDE8F88F0004014000001110B3
:1015C000001002400000014000080140000C0140F2
:1015D00000100140001401400C04014080680840E4
:1015E00000D0012070470AB1016170470904FBE790
:1015F00001488068704700002000002070B504009A
:101600001BD094F83D00002520B984F83C502046BA
:1016100000F0E8FA242084F83D002068016821F0F9
:101620000101016000F0FAFC404A6168914201D872
:101630003F4900E03F49884201D2012070BD3E4948
:101640002368B0FBF1F159606368934206D94FF407
:10165000967359434FF47A73B1FBF3F12368491C35
:1016600019626168914210D84900401EB0FBF1F246
:10167000521CC2F30B02042A01D2042022E0B0FB68
:10168000F1F0401CC0F30B001CE0A368CBB301EBEE
:10169000C10202EB0116421EB2FBF6F2521C42F4EA
:1016A0008042120536D06BB301EBC10202EB01118F
:1016B000401EB0FBF1F0401CC0F30B0040F4804032
:1016C00040F400402168C861D4E90701084321685B
:1016D0000860D4E90310084321688860D4E9050153
:1016E00008432168C8602068016841F00101016079
:1016F0002564202084F83D00256384F83E500020B6
:1017000070BD00E008E001EB4106421EB2FBF6F2BC
:10171000521CC6E70120D5E701EB4101401EB0FB9A
:10172000F1F0401CC0F30B00CAE70000A0860100E6
:1017300080841E0000093D0040420F002DE9FF4F4C
:1017400081B099468B4604464FF00108FFF750FFE1
:10175000054694F83D0020287BD1192301224D49EC
:101760002046009501F0FBF8002872D194F83C0067
:1017700001286ED0012084F83C0020680168C90768
:1017800003D1016841F0010101602068016821F482
:1017900000610160242084F83D00002626643E4854
:1017A000E06220272068016841F4807101604B46A7
:1017B00000224FF001112046009501F0D0F80028DA
:1017C00058D121680BF0FE000861FFF711FF216876
:1017D000054648694969C0F3400094F83D20C1F3CB
:1017E00080214FF0A00A12E0B9F1000F04D0FFF7FA
:1017F000FFFE411B494501D984F83DA02168486995
:101800004969C0F3400094F83D20C1F380210843AA
:1018100001D1A02AE8D184F83D7020684169C9430C
:10182000890717D4016841F400710160206841699B
:1018300080691923012217492046009501F08FF88D
:10184000C0B984F83D7084F83C60002005B0BDE864
:10185000F08F1DE0016841F40071016021686FF4B0
:1018600080604861192301220A492046009501F051
:1018700076F808B10320E9E74146039808F101082A
:1018800081428FD384F83D7084F83C600120DDE70D
:101890000220DBE7020010000000FFFF2DE9F84FF7
:1018A0001F4690468A460446DDF82890FFF7A0FEC2
:1018B000054694F83D0020287ED11923012278495D
:1018C0002046009501F04BF80028F5D194F83C0033
:1018D000012871D0012084F83C0020680168C90704
:1018E00003D1016841F0010101602068016821F421
:1018F00000610160222084F83D00102084F83E0041
:1019000000262664C4F8248067856648E062608DFE
:1019100020852B464A465146204600F040FF28B11C
:10192000206C84F83C60042850D073E0208D5E4F1A
:1019300068B1012814D00228206801681ED041F443
:101940008061016020684169806900909AE02068A8
:10195000416981690091016841F40071016091E081
:101960002068016821F48061016072B620684169D5
:1019700081690091016841F400710AE041F400615D
:10198000016072B62068416981690091016821F4A3
:101990008061016062B675E0032850D801280CD040
:1019A00002284B464FF0000239462046009512D0DF
:1019B00000F0D5FF70BB13E070E02A464946204690
:1019C00001F042F828B1206C202823D00120BDE886
:1019D000F88F20684BE000F0C2FFD8B972B61BE068
:1019E0002068016821F48061016072B62068016995
:1019F000606A421C62620170208D401E2085608DED
:101A0000401E60854B46002239462046009500F076
:101A1000A6FF08B10320DAE72068016841F40071ED
:101A2000016020680169606A421C62620170208D59
:101A3000401E2085608D401E608562B6C9E72A463B
:101A40004946204601F000F80028BCD12068016911
:101A5000606A421C62620170208D401E2085608D8C
:101A6000401E608520684169C94349070AD401695D
:101A7000606A421C62620170208D401E2085608D6C
:101A8000401E6085208D002886D1202084F83D00EE
:101A900084F83E6084F83C60002098E7022096E7D6
:101AA000020010000000FFFF040001002DE9F84FC4
:101AB0001F4690468A460446DDF82890FFF798FDB9
:101AC000064694F83D0020287ED11923012243497F
:101AD0002046009600F043FF00287DD194F83C009A
:101AE000012879D0012084F83C0020680168C907EA
:101AF00003D1016841F0010101602068016821F40F
:101B000000610160212084F83D00102084F83E002F
:101B100000252564C4F8248067853148E062608D23
:101B2000208533464A465146204600F0A7FE28B19C
:101B3000206C84F83C5004284CD00DE020684169AA
:101B40008069009030E032464946204600F0ADFF03
:101B500028B1206C042838D00320BDE8F88F606AD3
:101B6000411C6162216800780861608D401E6085BB
:101B7000208D401E80B2208521684A69D2435207D9
:101B80000BD450B1606A421C626200780861608DBB
:101B9000401E6085208D401E2085324649462046E5
:101BA00000F0B6FE0028D4D1208D0028CBD154F807
:101BB0003D0B016841F400710160202004F81E090A
:101BC000E57765770020C8E706E02068016841F402
:101BD000007101600120C0E70220BEE70200100092
:101BE0000000FFFF30B5164D02681223032115488F
:101BF000154C85B0AA420ED1C02203916946CDE9A9
:101C00000023FFF70DFCE06940F40010E061E0699B
:101C100000F4001011E00D4DAA420FD14FF44062C4
:101C200003916946CDE90023FFF7FAFBE06940F430
:101C30008000E061E06900F48000049005B030BDF0
:101C400000540040000C01400010024000580040C9
:101C500002488168027811448160704720000020AA
:101C6000074810B5016841F010010160032000F041
:101C70009DF8002000F006F800F024F8002010BDC8
:101C80000020024070B50D4D04464FF47A7128785B
:101C9000B1FBF0F00A490968B1FBF0F000F0A3FBDA
:101CA00048B9102C07D200222146501E00F05EF8E1
:101CB00000206C6070BD012070BD0000200000207D
:101CC0002C000020214808B5816941F001018161A3
:101CD000816901F001010091C16941F08051C16148
:101CE000C06900F080500090032000F05FF80022EF
:101CF00011466FF00B0000F039F8002211466FF02A
:101D00000A0000F033F8002211466FF0090000F0DD
:101D10002DF800221146501F00F028F8002211462D
:101D2000101F00F023F800221146901E00F01EF84C
:101D300000221146501E00F019F80548416821F0B4
:101D4000E06141F00071416008BD000000100240F8
:101D50000000014000F01F02012191404009800075
:101D600000F1E020C0F8001170470000F0B40E4B05
:101D70001B680C46C3F30223C3F10705042D00D9E9
:101D80000425191D072901D2002300E0DB1E0126CE
:101D900006FA05F1491E214099409E40761E1640E4
:101DA0003143F0BC00F03ABF0CED00E0064900F012
:101DB000070208684FF6FF03184040EA0220034A72
:101DC00010430860704700000CED00E00000FA05C9
:101DD0002DE9F84305460078354CC00754D0E0693A
:101DE0000026C00008D4E06940F08050E061E0695E
:101DF000012600F0805000902E480168C90512D4D9
:101E00000168804641F480710160FFF7F1FB0746ED
:101E100005E000BFFFF7ECFBC01B642823D8D8F80F
:101E20000000C005F6D5206A10F4407021D0A988C2
:101E300001F4407181421CD0206A1F49012220F424
:101E400040700A6000220A602062C00711D0FFF7CC
:101E5000CFFB074641F2883808E000BFFFF7C8FB18
:101E6000C11B414502D90320BDE8F883206A8007E1
:101E7000F4D5206A696820F44070084320621EB1DE
:101E8000E06920F08050E0612878800705D560681F
:101E9000A96820F44040084360602878C00605D552
:101EA0006068E96820F48000084360600020DBE798
:101EB0000010024000700040400442422DE9F0470B
:101EC000DFF83C8105460E46D8F8000000F0070018
:101ED000B0420CD2D8F8001021F007013143C8F805
:101EE0000010D8F8000000F00700B04263D1287855
:101EF000444C800705D56068A96820F0F0000843CD
:101F000060602878C00745D06868012816D021682D
:101F1000022816D0890700294DDA616821F00301F3
:101F200001436160FFF764FB6968074641F288304E
:101F300001290FD00229814619D027E021688903A1
:101F4000E9E78901E7E700BFFFF752FBC11B4945FD
:101F500001D918E081466068C0F381000128F3D1FF
:101F600018E000BFFFF744FBC11B49450BD8606870
:101F7000C0F381000228F5D10CE000BFFFF738FB69
:101F8000C11B494502D90320BDE8F087606810F005
:101F90000C0FF3D1D8F80010404601F00701B14210
:101FA0000BD9016821F0070131430160006800F09E
:101FB0000700B04201D00120E6E72878400705D5A8
:101FC0006068E96820F4E0600843606028780007F2
:101FD00006D56068296920F4605040EAC10060605D
:101FE00000F03CF86168084AC1F30311515CC84035
:101FF000064908600020FFF745FE0020C4E7000006
:102000000020024000100240F84200082C0000208E
:1020100001480068704700002C0000200448054972
:1020200000684968044AC1F30221515CC840704706
:102030002C00002000100240084300080448054915
:1020400000684968044AC1F3C221515CC840704726
:102050002C000020001002400843000812A185B0A7
:102060000FC98DE80F0014A0144A0068049051684D
:10207000134801F00C03042B10D0082B0ED1C1F330
:102080008343C9031DF803000AD5516804AAC1F3AC
:102090004041515C0A4A5043B0FBF1F005B0704733
:1020A00008494843FAE70000020304050607080947
:1020B0000A0B0C0D0E0F1010010200000010024060
:1020C00000127A0000093D002DE9F84F044600781F
:1020D000B94DC00748D06868C0F38100012807D017
:1020E0006868C0F38100022809D16868C00306D57A
:1020F0002868800338D5606800286FD034E06068B5
:10210000B0F5803F0BD010B1B0F5A02F11D02868EA
:1021100020F480302860286820F4802002E02868BD
:1021200040F480302860606888B1FFF761FA0646A5
:1021300009E0286840F480202860F0E7FFF758FAAB
:10214000801B642875D828688003F7D50CE0FFF75A
:102150004FFA064605E000BFFFF74AFA801B6428E5
:10216000F0D828688003F7D42078944E80074FF089
:1021700001094FF000083BD5686810F00C0F07D03C
:102180006868C0F38100022809D16868C00306D4DA
:102190002868800714D5206901281FD110E0206924
:1021A000B0B1C6F80090FFF723FA074605E000BF7C
:1021B000FFF71EFAC01B0228C4D828688007F7D58D
:1021C0002868616920F0F80040EAC10028600FE04B
:1021D000C6F80080FFF70CFA074606E0E9E000BF0A
:1021E000FFF706FAC01B022823D828688007F7D417
:1021F000207800072CD57248A169D9B1C0F80090A9
:10220000FFF7F6F9074604E0FFF7F2F9C01B0228D2
:102210000FD8686A8007F7D56A484FF4FA5100680A
:10222000B0FBF1F0009000BF0098411E0091FAD27F
:102230000EE080E0C0F80080FFF7DAF9074604E01E
:10224000FFF7D6F9C01B022875D8686A8007F7D453
:102250002078400760D5E8690027C00008D4E86905
:1022600040F08050E861E869012700F0805000905C
:1022700055480168C90513D40168834641F480714B
:102280000160FFF7B5F9824606E000BFFFF7B0F93D
:10229000A0EB0A0064284ED8DBF80000C005F5D595
:1022A000E06801280AD008B1052813D0286A20F078
:1022B00001002862286A20F0040002E0286A40F049
:1022C00001002862E06841F2883B98B1FFF790F97D
:1022D00082460BE0286A40F004002862EEE700BF67
:1022E000FFF786F9A0EB0A0159455AD8286A8007FA
:1022F000F6D50CE0FFF77CF9824605E0FFF778F9A8
:10230000A0EB0A0159454CD8286A8007F6D41FB1C2
:10231000E86920F08050E861E06988B36968C1F33A
:102320008101022945D00228C6F8608004D0FFF759
:102330005FF9044638E034E0FFF75AF9074604E055
:10234000FFF756F9C01B02282BD828688001F7D464
:10235000206AB0F5803F05D16868A16820F400309C
:1023600008436860D4E908010843696821F47411DE
:1023700008436860C6F86090FFF73AF9044606E043
:1023800015E000BFFFF734F9001B022809D82868C0
:102390008001F7D50BE000BFFFF72AF9001B0228E8
:1023A00002D90320BDE8F88F28688001F4D400200A
:1023B000F8E70120F6E7000000100240000042426A
:1023C000800442422C000020007000404FF0E021C9
:1023D0000428086903D020F004000861704740F029
:1023E0000400FAE7704710B5401EB0F1807F01D3BA
:1023F000012010BD4FF0E02460610F21601700F054
:102400000DFC0020A06107202061002010BD10B548
:10241000FFF7E8FF10BD704770B50268044610680A
:10242000D168536910F00F0F50D003F0010501F48B
:10243000907635435DD0C20705D0CA0503D5E26B5F
:1024400042F00102E263420705D5DA0703D0E26BEE
:1024500042F00202E263820705D5DA0703D0E26B9D
:1024600042F00402E263020705D5DA0703D0E26B0B
:1024700042F00802E263E26B002A33D0800604D502
:10248000880602D5204600F059FC20684069E16BBF
:10249000C0F38010090700D428B3204600F040FCA8
:1024A0002068416949061AD5416921F0400141611E
:1024B000606BA0B11B494163606BFEF73FFE0028D3
:1024C00010D0606B416BBDE870400847830610D5A3
:1024D0008B060ED52046BDE8704000F02FBC20468C
:1024E000FFF799FF70BD2046FFF795FF0020E063DE
:1024F00070BD030606D50B0604D52046BDE8704026
:1025000000F020BD4006F3D54806F1D5D16820463D
:1025100021F04001D160202184F8391000F029F920
:1025200070BD0000112D000870B5040004D094F8AF
:102530003900002510B106E0012070BD84F8385044
:10254000204600F023F8242084F839002068C16870
:1025500021F40051C160204600F03CFC2068016974
:1025600021F4904101612068416921F02A01416113
:102570002068C16841F40051C160E563202084F8FF
:10258000390084F83A00002070BD0000F0B506461E
:10259000DFF8F4C0036800243C48022203213C4DCC
:1025A000802785B0634533D1836943F480438361D9
:1025B0008069039100F4804004901002CDE900028C
:1025C00069462846FEF72CFF2815CDE90004694628
:1025D00028460294FEF724FF2F4D2E48C5E900043B
:1025E000C5E902472C616C61AC612846EC61FEF7DD
:1025F0009BFE20B14FF4937128A000F0E2FC7563BC
:102600000022114625206E62FFF7B0FB252037E03F
:10261000DFF8A4C0634535D1C36943F40033C36117
:10262000C069039100F4003004900420CDE9000259
:1026300069462846FEF7F4FE0820CDE90004694605
:1026400028460294FEF7ECFE12481C4D1430C5E9F2
:102650000004C5E902472C616C61AC612846EC615D
:10266000FEF762FE20B14FF4AA710CA000F0A9FCA5
:1026700075630022114626206E62FFF777FB262045
:10268000FFF768FB05B0F0BD0038014000100240C4
:102690000008014058000240B80500202E2E2F539C
:1026A00072632F73746D3332663178785F68616C52
:1026B0005F6D73702E63000000440040FC05002035
:1026C00090F83A30202B22D1F9B1F2B190F838309D
:1026D000012B1CD081628285C2850021C163222228
:1026E00080F83A2080F838100168CA6842F4807295
:1026F000CA6001684A6942F001024A610068C16823
:1027000041F02001C1600020704701207047022085
:1027100070470000054900680968884204D1022218
:1027200003490248FFF7CCBF704700000C010020AE
:102730001000002090F83930202B18D1A9B1A2B197
:1027400090F83830012B12D001628284C2840021BB
:10275000C163212280F8392080F838100068C168F0
:1027600041F08001C16000207047012070470220C5
:1027700070477047FEE701684A69D24352050CD49E
:102780006FF480624A6104210164002140F8301F27
:1027900020224273017301207047002070472DE909
:1027A000F84F0446C06A1E4692460D4621680A68E4
:1027B00042F480620A60042807D0012805D010F591
:1027C000803F02D0206B112804D12068016841F4B9
:1027D000807101604FF001185346002241462046A7
:1027E000009600F0BCF8B8BB206908F10109B0F50B
:1027F000804F12D00620216800EAD51747F0F0007C
:1028000008613346524608F10701204600F0D8F827
:1028100038B1206C04282FD01EE0E8B240F001004F
:102820001FE02168E8B20861334652464946204617
:1028300000F0C6F80028ECD1206841698169009158
:10284000016841F4807101605346002241462046F0
:10285000009600F084F810B10320BDE8F88F47F02F
:10286000F10021680861334652464946204600F08F
:10287000A7F80028CDD1F0E70120EEE7F8B504462F
:10288000C06A1E460D461746042807D0012805D009
:1028900010F5803F02D0206B122804D12068016817
:1028A00041F480710160134600224FF0011120466F
:1028B000009600F054F8A0B92069B0F5804F12D00E
:1028C0000620216800EAD51040F0F0000861334688
:1028D0003A460E49204600F073F838B1206C0428BF
:1028E00011D00320F8BD05F0FE0000E0E8B2216839
:1028F0000861064933463A46891F204600F060F8D1
:102900000028EBD1F8BD0120F8BD0000080001004F
:1029100070B516460D4604461AE02046FFF72BFF19
:1029200008B1012070BD681C12D025B1FEF760FE11
:10293000801BA8420CD954F8400F40F0200044F806
:10294000100900202060202161732073032070BDD6
:1029500020684069C0434007DFD4002070BD2DE9E6
:10296000F0471E4690460D460446C1F30747DDF882
:10297000209012E0701C10D02EB1FEF739FEA0EBB3
:102980000900B04209D9002044F8300F20216173BA
:10299000A07320730320BDE8F0872068012F0AD0C0
:1029A000806925EA00000004000C06D000214145A2
:1029B000E0D00020EFE74069F3E70121F7E70000EE
:1029C0002DE9F0479A4691460D46044600264FF001
:1029D0002008C1F307472AE020684069C04340054A
:1029E00012D42068016841F40071016021686FF41D
:1029F0008060486104202064266384F83D8084F868
:102A00003C600120BDE8F087B9F1FF3F0FD0B9F17C
:102A1000000F05D0FEF7ECFDA0EB0A01494506D9F1
:102A200044F8306F84F80D8026730320EAE72068AD
:102A3000012F07D0D0F8180025EA00000004000C90
:102A4000E0D0C9E74069F7E72DE9F041002590465D
:102A50000E460446202721E04069C043C0060CD43E
:102A600021686FF0100048612564256384F83D708B
:102A700084F83C500120BDE8F0812EB1FEF7B8FD8E
:102A8000A0EB0800B04209D954F8400F40F02000F4
:102A900044F80409677025700320ECE72068416959
:102AA000C9434906D8D40020E5E770B516460D465F
:102AB00004461AE02046FFF75EFE08B1012070BD13
:102AC000681C12D025B1FEF793FD801BA8420CD9DB
:102AD00054F8400F40F0200044F810090020206016
:102AE000202161732073032070BD20684069C043BA
:102AF0000006DFD4002070BD3EB50F480D4900250B
:102B000001600124C0E90254456145604FF4602131
:102B10000461C161FEF7AAF900B1FEE70420009547
:102B2000CDE9014069460448FEF79EF8002800D030
:102B3000FEE73EBD002401403400002030B51748B8
:102B400085B0816941F020018161816901F0200136
:102B50000491816941F004018161816901F00401FE
:102B60000491816941F00801816180690C4D00F098
:102B700008004FF480540490002221462846FEF7B6
:102B800032FD0120CDE90040002002900220039098
:102B900069462846FEF744FC05B030BD00100240EF
:102BA000000801400B4810B5094901600A4941601D
:102BB00000214FF480428160C0E9031241618161CC
:102BC000C1610162FEF71AFD002800D0FEE710BDCA
:102BD0000054004064000020A08601000C4810B59D
:102BE0000A4901600B4941600021DE22C0E902125E
:102BF0004FF48042C0E904218161C1610162FEF7A6
:102C0000FDFC002800D0FEE710BD00000058004089
:102C1000B8000020A0860100FEE770470907090EF2
:102C2000002806DA00F00F0000F1E02080F8141D03
:102C3000704700F1E02080F800147047704770473B
:102C400010B5FFF705F8BDE81040FFF7E0BB30B561
:102C500093B001210804CDE900100025029502245B
:102C60000491CDE907404FF4E01009906846FFF762
:102C70002BFA00B1FEE70AA90F2081E831004FF4DA
:102C80008060CDE90D0502210AA8FFF717F900B110
:102C9000FEE74FF4004011900F940FA8FFF798F84B
:102CA00000B1FEE7FFF7B4F94FF47A71B0FBF1F031
:102CB000FFF799FB0420FFF789FB00221146501E05
:102CC000FFF754F813B030BD0D48016841F0010121
:102CD000016041680B4A1140416001680A4A114095
:102CE0000160016821F480210160416821F4FE0146
:102CF00041604FF41F0181600449C00308607047C0
:102D0000001002400000FFF8FFFFF6FE08ED00E0B3
:102D100010B5406A0021C185C184FFF77CFB10BD5E
:102D20000168CA6822F49072CA6001684A6922F098
:102D300001024A61202180F83A10704710B590F8DE
:102D40003A10222901D0022010BD8168B1F5805FC0
:102D500011D00169002901681FD0496801F07F0383
:102D6000816A4A1C82620B70C18D491E0904090CDC
:102D7000C18518D02BE00269816A002A0268526876
:102D800005D0D2B20A80816A491C8162ECE7C2F3A5
:102D900008020A80816A891CF7E74A68816A4B1C2D
:102DA00083620A70E0E70168CA6822F02002CA6004
:102DB0000168CA6822F48072CA6001684A6922F018
:102DC00001024A61202180F83A10FFF7A3FC00209D
:102DD00010BD00002DE9F041044600680169E26879
:102DE00021F44051114301612169A06808436169E0
:102DF00008432168CA6841F20C639A430243CA60DF
:102E000020684169A26921F44071114341614C4934
:102E100020686425322688423CD1FFF70FF900EB89
:102E2000C00101EB001061688900B0FBF1F7FFF70A
:102E300005F900EBC00101EB00106168B0468900A4
:102E4000B0FBF1F0B0FBF5F06FF01801484307EB71
:102E5000800106EB0110B0FBF5F000F0F006FFF783
:102E6000EDF800EBC00101EB001061688900B0FBD8
:102E7000F1F0B0FBF5F006EB0016FFF7DFF800EB22
:102E8000C00101EB001061688900B0FBF1F7FFF7AA
:102E9000D5F83BE0FFF7C2F800EBC00101EB0010F2
:102EA00061688900B0FBF1F7FFF7B8F800EBC001EB
:102EB00001EB00106168B0468900B0FBF1F0B0FB97
:102EC000F5F06FF01801484307EB800106EB0110A5
:102ED000B0FBF5F000F0F006FFF7A0F800EBC00142
:102EE00001EB001061688900B0FBF1F0B0FBF5F078
:102EF00006EB0016FFF792F800EBC00101EB0010A3
:102F000061688900B0FBF1F7FFF788F800EBC001BA
:102F100001EB001061688900B0FBF1F0B0FBF5F047
:102F20006FF01801484307EB800108EB0110B0FB7C
:102F3000F5F0216800F00F0030448860BDE8F081B2
:102F40000038014090F83910212901D00220704743
:102F50008168B1F5805F016A0BD04A1C0262026889
:102F600009785160C18C491E0904090CC1840ED036
:102F700017E009880268C1F308015160016900295E
:102F8000016A02D0491C0162ECE7891CFBE7016879
:102F9000CA6822F08002CA600068C16841F040013E
:102FA000C1600020704700000148FFF735BA0000FB
:102FB0000C0100200148FFF72FBA00004C0100204F
:102FC000FEE7FEE70FB4084B10B504A902AA039868
:102FD00000F00CF9044602A9002000F09EFC2046F7
:102FE00010BC5DF814FB00001B390008410008020A
:102FF00018BF04200A0E18BF40F001004FF07F42B6
:1030000032EA010108BF40F00200012808BF052094
:10301000704700214FF07E50FDF7FCB8FDF7A2B8D5
:1030200000210846FDF7F6B861214FF0E040FDF7BA
:10303000A9BA6FF05E010807FDF7A4BA02E008C85C
:10304000121F08C1002AFAD170477047002001E022
:1030500001C1121F002AFBD170470000014908601E
:1030600070470000300000202DE9FF5F82B0002192
:10307000DDE90430020DDDF840B0034318D044F61A
:103080001050A2F2FF3242431514119801281FD0AC
:10309000A5EB0B00401C5FEA000A4FF000064E4F04
:1030A000DFF83891B046504615D5CAF1000413E058
:1030B000119801244AA3012801D16FEA0B0102985B
:1030C000119AC0E90031C0E9024206B0BDE8F09FA4
:1030D000CBF10000DFE704460021404A491842EBEB
:1030E0000450CDE9001012E0E00707D032463B461D
:1030F00040464946FDF756FB8046894632463B46E8
:1031000010461946FDF74EFB06460F466410002C8C
:10311000EAD1DDE90401DDE90023BAF1000F06DAA6
:10312000FDF740FB42464B46FDF73CFB05E0FDF753
:10313000AFF842464B46FDF7ABF804460E46002278
:10314000284BFDF7DFFB03D84FF0FF30014607E0C7
:103150000022254B20463146FDF77DFAFDF794FB12
:10316000102409E0002C0ADB0A220023FDF770F985
:10317000039B30321A55641E50EA0102F2D1641CDE
:10318000039AC4F111031444119A012A03D00122B5
:1031900008430DD10AE0084304D000204FF0110B82
:1031A000119072E7A3EB0B056D1E0DE05B4504DD8E
:1031B0004FF0000205F1010504E003DA4FF00002D0
:1031C000A5F10105002AECD002981199C0E902315D
:1031D000C0E9004579E70000000014400000F03F1E
:1031E000300000000000F0430000E03F2DE9FF4FF9
:1031F00095B09B468946064600250FE2252877D1E3
:1032000000242746F84A0121059400E0044316F8FB
:10321000013F203B01FA03F01042F7D130782A2811
:1032200011D06FF02F033078A0F13002092A16D8A0
:10323000059A44F0020402EB820203EB42021044BE
:10324000761C0590EFE759F8042B0592002A03DA63
:10325000504244F40054059044F00204761C307847
:103260002E2816D116F8010F44F004042A280DD098
:103270006FF02F023078A0F13003092B09D807EB4B
:10328000870302EB4303C718761CF3E759F8047B66
:10329000761C30786C280FD006DC4C2817D06828B4
:1032A0000DD06A2814D104E0742810D07A280FD1E8
:1032B0000DE044F400140AE044F4801401E044F406
:1032C00040147278824202D104F58014761C761C78
:1032D000307866280BD013DC582877D009DC00281A
:1032E00075D04528F6D04628F4D047281AD19DE15C
:1032F00018E0632835D0642879D0652812D195E18B
:10330000702873D008DC6728F1D069286FD06E2848
:103310000DD06F2806D1B5E073282CD0752875D054
:10332000782874D05A46179990476D1C75E1C4F3FC
:103330000250022809D003280DD0D9F80010042823
:103340000DD00D6009F1040967E1D9F80010EA1702
:10335000C1E90052F6E7D9F800100D80F2E70D70D0
:10336000F0E719F8041B8DF8001000208DF801001B
:10337000EA46012003E059F804AB4FF0FF30610743
:103380004FF0000102D40DE008F101018846B94276
:103390000FDA8045F8DB1AF808100029F4D108E0AC
:1033A00008F1010188468142FADB1AF80810002969
:1033B000F6D105985B46A0EB080721463846179AD8
:1033C00000F094FA284400EB080507E04DE029E1FD
:1033D0000DE01AF8010B5A4617999047B8F1010809
:1033E000F7D25B4621463846179A13E142E00A229B
:1033F0000092C4F302524FF0000A022A08D059F892
:1034000004CB032A4FEAEC710AD00DE029E02AE050
:1034100009F1070121F00702F2E802C1914609E033
:103420000FFA8CFC4FEAEC71042A03D14FFA8CFCA2
:103430004FEAEC71002907DA0A460021DCF1000CA2
:1034400061EB02012D2202E0220504D52B228DF82A
:103450000420012203E0E20701D02022F7E7904692
:1034600059E00A2102E010220DE010214FF0000A7D
:1034700000910BE010224FF0000A44F004040827EA
:10348000009203E008224FF0000A0092C4F30252B7
:10349000022A05D059F804CB0021032A08D009E0FC
:1034A00009F1070121F00702F2E802C1914605E0A7
:1034B0001FFA8CFC042A01D10CF0FF0C4FF000081D
:1034C000220728D5702806D0009B83F0100353EA0A
:1034D0000A0305D00EE040228DF80420012208E006
:1034E0005CEA010206D030228DF804208DF8050038
:1034F00002229046009B83F0080353EA0A030AD194
:103500005CEA010201D1620705D530228DF8042062
:103510004FF001087F1E582804D034A003900EA855
:1035200002900DE036A0F9E753466046009AFCF79A
:103530008FFF84460398825C0298401E02900270BE
:103540005CEA0100F0D1029806A9081A00F1200AED
:10355000600702D524F4803400E00127574502DDDE
:10356000A7EB0A0000E0002000EB0A01009005989C
:103570004144401A0590E00306D45B462146179A61
:10358000059800F0B3F90544002706E001A85A4663
:10359000C05D179990476D1C7F1C4745F6DBE00323
:1035A0000CD55B462146179A059800F09FF9054413
:1035B00004E030205A46179990476D1C0099481E28
:1035C00000900029F5DC08E0029802995A4600783C
:1035D000491C0291179990476D1CBAF10001AAF19C
:1035E000010AF1DC65E100000928010030313233C5
:1035F000343536373839616263646566000000002F
:103600003031323334353637383941424344454618
:103610000000000000F058F90544761C30780028BE
:103620007FF4ECAD19B02846BDE8F08F620700D4F6
:10363000062709F1070222F0070CFCE80223E14605
:1036400003F000485FEA080C02D00FF2702C0DE086
:103650005FEA045C02D50FF2682C07E05FEAC47CE5
:1036600002D00FF2602C01E0AFF2700C4FF0FF3887
:1036700023F00043CDF850C065280CD006DC452867
:1036800009D046281DD047283DD13DE0662818D0F6
:1036900067287ED138E00021112F01DB112000E0E6
:1036A000781CCDE9000106A90EA8FFF7DDFCDDE9D5
:1036B0000F010E9A03910021009207F1010A049173
:1036C0004DE04FF000400097CDE9011006A90EA88B
:1036D000FFF7CAFCDDE90F0203920E9B119900224D
:1036E000DDF80CA00093049211B9791C00EB010ADB
:1036F000B7EB0A0004D4C0F1FF3007F1010A0490CF
:10370000AAEB0700019044E0012F00DA0127002115
:10371000112F01DD112000E03846CDE9000106A996
:103720000EA8FFF7A1FCDDE90F010E9A039100211D
:1037300004910092BA4621070CD40399514500DA4E
:103740008A46BAF1010F05DD009AAAF10101515C28
:10375000302908D0B84202DA10F1040F06DA01214C
:10376000CDE9011015E0AAF10101E9E7002805DC27
:10377000049901440491AAEB000102E0411C514567
:1037800000DD8A460499401A401C01904FF0004029
:103790000290200704D40198504501DBCDF8048045
:1037A00000208DF84F0002980DF14F07B0F1004F47
:1037B00025D02B200E9002984FF0020800280CDA3A
:1037C000404202902D200E9007E00A210298FCF75B
:1037D00029FE3031029007F8011DB8F10001A8F16F
:1037E0000108F2DC02980028EFD1791E0E980870CB
:1037F000307800F0200040F0450007F8020D12A8D4
:10380000C01B00F107081498007800B1012000EBFC
:103810000A01019801EBE07105984144401A401EED
:103820000590E00306D45B462146179A059800F000
:103830005DF805441498007818B15A4617999047D6
:103840006D1CE00324D55B462146179A059800F0CD
:103850004DF805441CE00498002807DBDDE903016E
:10386000884203DD0098405C179901E017993020E9
:103870005A469047049805F10105401C04900198B0
:10388000401E019004D12E205A46179990476D1C76
:10389000BAF10001AAF1010ADDDC05E017F8010B1D
:1038A0005A46179990476D1CB8F10001A8F101081C
:1038B000F4DC5B462146179A0598ABE62D00000024
:1038C0002B000000200000002DE9F04104460025F7
:1038D0001E461746880404D405E039462020B04728
:1038E0006D1C641EF9D52846BDE8F0812DE9F04134
:1038F000044600251E469046C80301D5302700E047
:103900002027880404D505E041463846B0476D1CA1
:10391000641EF9D52846BDE8F0810A68531C0B6087
:103920001070704770B5124D4FF48054002221463C
:103930002846FDF758FE4FF41670FDF73DF90122B9
:1039400021462846FDF74FFE6420FDF735F9214654
:103950002846FDF743FE4FF4FA710028084603D0CD
:10396000FDF72AF9002070BDFDF726F9012070BD92
:103970000008014070B5114D4FF4805400222146DB
:103980002846FDF730FE0220FDF716F901222146F8
:103990002846FDF728FE0A20FDF70EF921462846A5
:1039A000FDF71CFE00284FF03A0003D0FDF704F9A4
:1039B000012070BDFDF700F9002070BD0008014036
:1039C00070B500254FEA0504FFF7D4FFA040284357
:1039D000641CE4B2C5B2082CF6D3284670BD2DE9AC
:1039E000F04701250026FFF7EBFF0446FFF7E8FF4D
:1039F00044EA00276C1F4FF080494FF6FF782F42B2
:103A00000AD02046FCF7B3FC0146484600F064F9B2
:103A10003146FCF7A7FB0646641C64B208EA45057C
:103A2000072CECDB3046BDE8F087000070B504469B
:103A300000F010F8442C08D1044D4FF48054214676
:103A40002846FDF7CBFD0028F9D070BD00080140E5
:103A5000AFF300802DE9F041044601260025DFF890
:103A60005C8000F00100370300284FF00002394667
:103A700040460BD0FDF7B7FD0320FDF79DF801226E
:103A800039464046FDF7AFFD5A200AE0FDF7ABFD91
:103A90005A20FDF791F8012239464046FDF7A3FD73
:103AA0000320FDF789F87006060E6D1CEDB204EADE
:103AB0000600082DD8D3BDE8F081000000080140C1
:103AC0001CB5FEF7CDF8FFF7C2F8FFF737F87648D8
:103AD000416941F0010141614069002200F00100AB
:103AE000009011460B20FEF741F90B20FEF732F94A
:103AF000002211460F20FEF739F90F20FEF72AF9B0
:103B0000002211461020FEF731F91020FEF722F9AD
:103B1000674866494FF4164600240160C0E9016415
:103B20000C25C460C0E904458461C461FEF7FCFC57
:103B300000B1FEE75E485F4940300160C0E90164C2
:103B4000C460C0E904458461C461FEF7EDFC00B1C6
:103B5000FEE7FFF727F8FFF741F8FEF7CDFF022257
:103B600055495348FEF7ACFD514854A18030FCF74D
:103B7000F0FA4F488030FCF7E5FA4D4982B28031C7
:103B8000A1F14000FEF7D6FDFFF7CCFECC20FFF7F9
:103B90005FFF4420FFF74AFF6420FDF721F8FFF79D
:103BA000C1FECC20FFF754FFBE20FFF73FFF424D80
:103BB0000126083D3E48B1B20A230122A838FDF78C
:103BC000BDFD00B92E61761CFF2EF3DB4720FCF70C
:103BD000ABFF3748A838FCF7C3FF3548A838FCF7D7
:103BE00097FF33481021A838FCF7AEFF324F3878E2
:103BF0003128FCD178784028F9D13C707C706C80F9
:103C0000FFF790FECC20FFF723FF4420FFF70EFFC5
:103C10006420FCF7E5FFFFF785FECC20FFF718FFD7
:103C2000BE20FFF703FFFFF7DAFEFCF7BBFBE860FF
:103C30001F48A838FCF7E8FFA880EC8000261C4845
:103C400001226946D838FDF7F3F928780028FCD01E
:103C50002C70E888BDF800100844E880761C202EFF
:103C6000EDDBE888FCF78CFB1649FCF7D3FA4FF044
:103C70007E51FCF7CCFA68616869FCF7C0FBCDE9BE
:103C80000001AB880A4810A18030EA68FFF79AF972
:103C900007488030FCF756FA054982B28031044863
:103CA000FEF748FDA3E70000001002400038014085
:103CB0000C010020004400401000002048656C6C9E
:103CC0006F0D0A0000F0FF47256440256440253150
:103CD0002E33660D0A0000002DE9F04D0E4600233C
:103CE000A0F5000C4FF00071354684B002464FF04D
:103CF0007E5401EB45014FF07F48BCF1FE4F80F050
:103D00009F81B1F1804FC0F0DB81FE490144B1F5E4
:103D1000005F40F2A78200F58021C90C01F00F0777
:103D2000C1F307117F39A2EBC15501EB030B3846F4
:103D3000FCF71DFB6FF00301FCF724FC4FF07E51F4
:103D4000FCF710FA014602902846FCF75DFA019054
:103D500028460299FCF706FA00F5006A6FF30B0A91
:103D6000009051460298FCF74FFA2946FCF7FAF901
:103D700002904FF07E500099FCF74CFA01460090FB
:103D80000198FCF7CDFB00F500656FF30B052846A5
:103D90000299FCF7C5FB029051462846FCF7C0FB90
:103DA0000199FCF734FA0299FCF72EFA0099FCF716
:103DB000B7FB014601902846FCF7D4F90146029072
:103DC000FCF7AEFB8246D049FCF7AAFBCF49FCF7D3
:103DD000C9F95146FCF7A4FB824600212846FCF7AE
:103DE000D1FB009051460298FCF79AFB0546002152
:103DF0000198FCF7C7FB2946FCF7B4F98246014657
:103E00000098FCF7AFF900F500656FF30B05294644
:103E10000098FCF7F9F95146FCF7A4F98246BC4931
:103E20002846FCF77DFB0090BA495046FCF778FB2A
:103E30008246B9492846FCF773FB5146FCF792F9D4
:103E4000824601460098FCF78DF900F500656FF396
:103E50000B0529460098FCF7D7F95146FCF782F983
:103E60008246AE48784450F8371000EBC700019105
:103E700047684FEA0B10FCF77AFA00903946504633
:103E8000FCF770F92946FCF76DF90199FCF76AF91E
:103E90000099FCF767F900F5006B6FF30B0B5846C0
:103EA0000099FCF7B1F90199FCF7AEF92946FCF746
:103EB000ABF93946FCF7A8F95146FCF7A8F906F525
:103EC000006782466FF30B0739463046FCF79CF9D2
:103ED000002100900846FCF72DFD00F00C06394645
:103EE0005846FCF71DFB054620F00040B0F18B4F13
:103EF0000ADDB8EB400F07D34FF08B4060F31E058F
:103F00002F464FF0000A1FE038460099FCF72AF9C7
:103F10005146FCF705FB074658460099FCF700FBA5
:103F20003946FCF71FF9824601462846FCF71AF984
:103F300000F500676FF30B0739462846FCF764F974
:103F40005146FCF70FF9824631460C20FCF7F2FC93
:103F500051463846FCF706F9FCF7AEFC064605115B
:103F6000FCF705FA3946FCF752F95146FCF7FAF826
:103F700007466B49FCF7D4FA6A49FCF7F3F839466F
:103F8000FCF7CEFA6849FCF7EDF83946FCF7C8FAB9
:103F90000146664806F00F06784450F82600FCF704
:103FA000BFFA6349794451F82610FCF7DBF8614900
:103FB000794451F82610FCF7D5F805F17D01FC296C
:103FC00008D22946FCF7DEFA04B02146BDE8F04DE0
:103FD000FCF7A6BA05F1BF01B1F5BF7F16D8294697
:103FE000FCF7D0FA2146FCF79BFA0546B8EB450FE3
:103FF0001AD068000CD02846FEF7F8FF042808BF46
:10400000FFF717F8284604B0BDE8F08D002D0BDA55
:104010000220FFF723F8FFF70CF80146204604B012
:1040200061F31E00BDE8F08D0220FFF717F8FEF7E0
:10403000FBFF0146204604B061F31E00BDE8F08D91
:10404000B1F1804F3CD300BF00F1FF41B1F1FE4F11
:1040500021D200BF20F00042C5F3C75110467F298E
:104060000DDB9729BFF651AEC1F196014FF0010C5F
:104070000CFA01F1A1F1010C1CEA050F07D0012097
:10408000FEF7ECFF04B0BDE8F04DFEF7C9BF2942D2
:1040900018BF294C39E641001CBF4FF08071B1EBCD
:1040A000400F09D91B21FCF76DFA02466FF01A0385
:1040B00010F0004FCED128E6BCF1FE4F18D224E616
:1040C000B1F1007F0ED336F0004105D006F000417B
:1040D00041F0FC552E46B7E7410018BFB8EB400F42
:1040E00078D8B1E7B1F1807F38BFA5F50006ABD332
:1040F00020F000416FF0FF4C104C01EB0C03A34289
:104100002FD31DE0001080C07EE24C3EABAAAA3E39
:1041100000B038423BAA3842D49AB8BBA804000089
:10412000FC596337C9FF753A1872313D74040000B9
:1041300028040000DC030000000080BFFFFF3F00F8
:1041400025F000439C44A4450BD3B0F17E5F18BF1B
:104150005FEA450C3ED0B1F1FF4F98BFB3F1FF4F7E
:1041600005D904B03146BDE8F04DFEF757BFB0F1B8
:10417000FF4F0FD0C5F3C7517F2909DB972911DA0B
:10418000C1F19601012202FA01F14A1E2A4205D02C
:10419000002108E015F0004F55D128E0294218BF52
:1041A000012100D1022110F5000F14D020B3B0F18D
:1041B000004F27D010F1814F4ED04FF0FE41B1EBB0
:1041C000400F94BF01200020012101EBE5718842DE
:1041D00039D10CE040E015F0004F02D0012936D073
:1041E00031E0012902BF3F4804B0BDE8F08D4FF037
:1041F000FF4004B0BDE8F08D15F000400ED104B0D2
:10420000BDE8F08DB5F1FF4F1DD015F5000F05D0BD
:1042100015F0004F14D009B1012907D00220FEF794
:104220001DFF04B0BDE8F04DFEF7F3BE0220FEF71F
:1042300015FFFEF7EEFE04B080F00040BDE8F08D03
:1042400009B1012903D004B00020BDE8F08D04B00D
:104250004FF00040BDE8F08D04B04FF07E50BDE857
:10426000F08D00BF4FF07E51FBF7CEFF05466FF09B
:104270000101FCF787F91C49FBF7C9FF2946FCF748
:104280004FF94FF07C51FBF7C2FF0746294608461D
:10429000FCF746F980F000403946FCF741F98246C8
:1042A00012492846FCF73CF9074611495046FCF7ED
:1042B00037F982460F492846FCF732F95146FBF799
:1042C00051FF054601463846FBF74CFF00F5006BF1
:1042D0006FF30B0B59463846FBF796FF2946FBF761
:1042E00041FFECE5000080FFABAAAA3E00B0B84158
:1042F0003BAAB841D49A38BB00000000000000007F
:10430000010203040607080900000000010203047B
:1043100000000000000000000000B33FB2BE7D3A84
:1043200000002E40DFCF513800007E40BF51FABA66
:1043300000E0A44019DAC3BA00E0C840C2ED8AB96F
:104340000040EB40CD1F2CBA001006412AFFFABAFC
:1043500000C01541DFCFD13700D024419A97703A81
:104360000050334189478E3600404141E75B9D381C
:1043700000B04E41C00A98B900A05B41558F943AF5
:1043800000306841DA92C0BA0040744162B3C63A64
:104390000000803F00A0853F00908B3F00C0913F10
:1043A0000030983F00F09E3F00F0A53F0050AD3F29
:1043B0000000B53F0000BD3F0060C53F0020CE3F7C
:1043C0000040D73F00C0E03F00C0EA3F0020F53F7B
:1043D000000000007D36AC397D3C3839EBDCF43828
:1043E000320A7E39124C26399B6AED39A4EE8339A4
:1043F0007F661E39F6398A392B426539A482113914
:104400005B991F39C3EECD39DDE7C637A5A22F3939
:104410000000803FC3AA853FC2958B3FD3C3913F25
:10442000F037983F32F59E3FD7FEA53F3F58AD3F4E
:10443000F304B53FA408BD3F2A67C53F8C24CE3F97
:10444000FD44D73FDFCCE03FC7C0EA3F7D25F53FC5
:104450007044000800000020340000003C300008D8
:10446000A4440008340000200C0A00004C3000086E
:10447000470000007800000000000000000000007D
:10448000000000000000000000000000000000002C
:1044900001000000100000000000000000A24A041B
:0444A0000000000018
:04000005080000ED02
:00000001FF
